{
  "contractName": "AssociationStore",
  "abi": [
    {
      "constant": true,
      "inputs": [
        {
          "name": "_myid",
          "type": "bytes32"
        },
        {
          "name": "_result",
          "type": "string"
        }
      ],
      "name": "__callback",
      "outputs": [],
      "payable": false,
      "stateMutability": "pure",
      "type": "function"
    },
    {
      "constant": true,
      "inputs": [
        {
          "name": "_myid",
          "type": "bytes32"
        },
        {
          "name": "_result",
          "type": "string"
        },
        {
          "name": "_proof",
          "type": "bytes"
        }
      ],
      "name": "__callback",
      "outputs": [],
      "payable": false,
      "stateMutability": "pure",
      "type": "function"
    },
    {
      "constant": true,
      "inputs": [
        {
          "name": "_address",
          "type": "address"
        }
      ],
      "name": "addressToString",
      "outputs": [
        {
          "name": "_uintAsString",
          "type": "string"
        }
      ],
      "payable": false,
      "stateMutability": "pure",
      "type": "function"
    },
    {
      "constant": true,
      "inputs": [
        {
          "name": "x",
          "type": "uint256"
        }
      ],
      "name": "toBytes",
      "outputs": [
        {
          "name": "b",
          "type": "bytes"
        }
      ],
      "payable": false,
      "stateMutability": "pure",
      "type": "function"
    },
    {
      "constant": true,
      "inputs": [
        {
          "name": "_i",
          "type": "uint256"
        }
      ],
      "name": "uint2str",
      "outputs": [
        {
          "name": "_uintAsString",
          "type": "string"
        }
      ],
      "payable": false,
      "stateMutability": "pure",
      "type": "function"
    },
    {
      "inputs": [],
      "payable": false,
      "stateMutability": "nonpayable",
      "type": "constructor"
    },
    {
      "constant": true,
      "inputs": [
        {
          "name": "_countInput",
          "type": "uint256"
        },
        {
          "name": "_propertyInput",
          "type": "string"
        }
      ],
      "name": "getPropertyById",
      "outputs": [
        {
          "name": "",
          "type": "string"
        }
      ],
      "payable": false,
      "stateMutability": "view",
      "type": "function"
    },
    {
      "constant": true,
      "inputs": [
        {
          "name": "_associationInput",
          "type": "uint256"
        },
        {
          "name": "_memberInput",
          "type": "uint256"
        },
        {
          "name": "_propertyInput",
          "type": "string"
        }
      ],
      "name": "getMemberPropertyById",
      "outputs": [
        {
          "name": "",
          "type": "string"
        }
      ],
      "payable": false,
      "stateMutability": "view",
      "type": "function"
    },
    {
      "constant": true,
      "inputs": [
        {
          "name": "a",
          "type": "string"
        },
        {
          "name": "b",
          "type": "string"
        }
      ],
      "name": "compareStrings",
      "outputs": [
        {
          "name": "",
          "type": "bool"
        }
      ],
      "payable": false,
      "stateMutability": "pure",
      "type": "function"
    },
    {
      "constant": true,
      "inputs": [],
      "name": "getCountTotalId",
      "outputs": [
        {
          "name": "",
          "type": "uint256"
        }
      ],
      "payable": false,
      "stateMutability": "view",
      "type": "function"
    },
    {
      "constant": true,
      "inputs": [
        {
          "name": "_associationInput",
          "type": "uint256"
        }
      ],
      "name": "getCountMembersByAssociationId",
      "outputs": [
        {
          "name": "",
          "type": "uint256"
        }
      ],
      "payable": false,
      "stateMutability": "view",
      "type": "function"
    },
    {
      "constant": true,
      "inputs": [],
      "name": "getMyIds",
      "outputs": [
        {
          "name": "",
          "type": "uint8[]"
        }
      ],
      "payable": false,
      "stateMutability": "view",
      "type": "function"
    },
    {
      "constant": true,
      "inputs": [
        {
          "name": "_businessNetworkName",
          "type": "string"
        }
      ],
      "name": "getMembersInformationByBusinessContract",
      "outputs": [
        {
          "name": "allMemoryInfo",
          "type": "string"
        }
      ],
      "payable": false,
      "stateMutability": "view",
      "type": "function"
    },
    {
      "constant": true,
      "inputs": [
        {
          "name": "_businessNetworkName",
          "type": "string"
        }
      ],
      "name": "getFondoComune",
      "outputs": [
        {
          "name": "_fondoComune",
          "type": "uint256"
        }
      ],
      "payable": false,
      "stateMutability": "view",
      "type": "function"
    },
    {
      "constant": false,
      "inputs": [
        {
          "name": "addrMember",
          "type": "address"
        },
        {
          "name": "role",
          "type": "string"
        },
        {
          "name": "quota",
          "type": "uint256"
        },
        {
          "name": "taxId",
          "type": "uint256"
        },
        {
          "name": "votingRight",
          "type": "string"
        },
        {
          "name": "name",
          "type": "string"
        },
        {
          "name": "countAssociation",
          "type": "uint8"
        }
      ],
      "name": "addMemberToAssociation",
      "outputs": [],
      "payable": false,
      "stateMutability": "nonpayable",
      "type": "function"
    },
    {
      "constant": false,
      "inputs": [
        {
          "name": "businessNetworkName",
          "type": "string"
        },
        {
          "name": "businessNetworkId",
          "type": "string"
        },
        {
          "name": "taxId",
          "type": "string"
        },
        {
          "name": "businessAddress",
          "type": "string"
        },
        {
          "name": "businessCode",
          "type": "string"
        },
        {
          "name": "adminName",
          "type": "string"
        },
        {
          "name": "status",
          "type": "string"
        },
        {
          "name": "details",
          "type": "string"
        },
        {
          "name": "durataContratto",
          "type": "string"
        },
        {
          "name": "managementEntity",
          "type": "string"
        },
        {
          "name": "sharedFund",
          "type": "string"
        }
      ],
      "name": "createAssociation",
      "outputs": [],
      "payable": false,
      "stateMutability": "nonpayable",
      "type": "function"
    }
  ],
  "bytecode": "0x60806040526000600760006101000a81548160ff021916908360ff1602179055503480156200002d57600080fd5b506000732831b64f4306f87931520ded2f52f122618ed5509050600073a62890aaf033f1268ffea22c52a4b7d6245e78869050600073dcc52fc934d151fbcafa412b29fa8565a6a98b6090506001600760009054906101000a900460ff1601600760006101000a81548160ff021916908360ff160217905550600760009054906101000a900460ff1660ff1660056000600760009054906101000a900460ff1660ff168152602001908152602001600020600001819055506040518060400160405280601281526020017f4e6574776f726b20427573696e6573732041000000000000000000000000000081525060056000600760009054906101000a900460ff1660ff16815260200190815260200160002060010190805190602001906200015892919062002723565b506040518060400160405280600481526020017f313233340000000000000000000000000000000000000000000000000000000081525060056000600760009054906101000a900460ff1660ff1681526020019081526020016000206002019080519060200190620001cc92919062002723565b506040518060400160405280600681526020017f564154206e6f000000000000000000000000000000000000000000000000000081525060056000600760009054906101000a900460ff1660ff16815260200190815260200160002060030190805190602001906200024092919062002723565b506040518060400160405280601381526020017f537472656574206e6f206172656120636f64650000000000000000000000000081525060056000600760009054906101000a900460ff1660ff1681526020019081526020016000206004019080519060200190620002b492919062002723565b506040518060400160405280600881526020017f53696320636f646500000000000000000000000000000000000000000000000081525060056000600760009054906101000a900460ff1660ff16815260200190815260200160002060050190805190602001906200032892919062002723565b506040518060400160405280600981526020017f53656d70726f6e696f000000000000000000000000000000000000000000000081525060056000600760009054906101000a900460ff1660ff16815260200190815260200160002060060190805190602001906200039c92919062002723565b506040518060400160405280600581526020017f56616c696400000000000000000000000000000000000000000000000000000081525060056000600760009054906101000a900460ff1660ff16815260200190815260200160002060070190805190602001906200041092919062002723565b506040518060400160405280600f81526020017f4578616d706c652064657461696c73000000000000000000000000000000000081525060056000600760009054906101000a900460ff1660ff16815260200190815260200160002060080190805190602001906200048492919062002723565b506040518060400160405280600a81526020017f323032352f30362f33300000000000000000000000000000000000000000000081525060056000600760009054906101000a900460ff1660ff168152602001908152602001600020600a019080519060200190620004f892919062002723565b506040518060400160405280601381526020017f4f7267616e6f20646920636f6e74726f6c6c6f0000000000000000000000000081525060056000600760009054906101000a900460ff1660ff168152602001908152602001600020600e0190805190602001906200056c92919062002723565b506040518060600160405280602a8152602001620069ca602a913960056000600760009054906101000a900460ff1660ff168152602001908152602001600020600f019080519060200190620005c492919062002723565b506001600760009054906101000a900460ff1601600760006101000a81548160ff021916908360ff160217905550600760009054906101000a900460ff1660ff1660056000600760009054906101000a900460ff1660ff168152602001908152602001600020600001819055506040518060400160405280601281526020017f4e6574776f726b20427573696e6573732042000000000000000000000000000081525060056000600760009054906101000a900460ff1660ff1681526020019081526020016000206001019080519060200190620006a492919062002723565b506040518060400160405280600481526020017f313233350000000000000000000000000000000000000000000000000000000081525060056000600760009054906101000a900460ff1660ff16815260200190815260200160002060020190805190602001906200071892919062002723565b506040518060400160405280600881526020017f564154206e6f203200000000000000000000000000000000000000000000000081525060056000600760009054906101000a900460ff1660ff16815260200190815260200160002060030190805190602001906200078c92919062002723565b506040518060400160405280601581526020017f537472656574206e6f206172656120636f64652032000000000000000000000081525060056000600760009054906101000a900460ff1660ff16815260200190815260200160002060040190805190602001906200080092919062002723565b506040518060400160405280600a81526020017f53696320636f646520320000000000000000000000000000000000000000000081525060056000600760009054906101000a900460ff1660ff16815260200190815260200160002060050190805190602001906200087492919062002723565b506040518060400160405280600481526020017f4361696f0000000000000000000000000000000000000000000000000000000081525060056000600760009054906101000a900460ff1660ff1681526020019081526020016000206006019080519060200190620008e892919062002723565b506040518060400160405280600581526020017f56616c696400000000000000000000000000000000000000000000000000000081525060056000600760009054906101000a900460ff1660ff16815260200190815260200160002060070190805190602001906200095c92919062002723565b506040518060400160405280601181526020017f4578616d706c652064657461696c73203200000000000000000000000000000081525060056000600760009054906101000a900460ff1660ff1681526020019081526020016000206008019080519060200190620009d092919062002723565b506040518060400160405280600a81526020017f323033302f31322f33310000000000000000000000000000000000000000000081525060056000600760009054906101000a900460ff1660ff168152602001908152602001600020600a01908051906020019062000a4492919062002723565b506040518060400160405280601381526020017f4f7267616e6f20646920636f6e74726f6c6c6f0000000000000000000000000081525060056000600760009054906101000a900460ff1660ff168152602001908152602001600020600e01908051906020019062000ab892919062002723565b506040518060600160405280602a815260200162006976602a913960056000600760009054906101000a900460ff1660ff168152602001908152602001600020600f01908051906020019062000b1092919062002723565b506001600760009054906101000a900460ff1601600760006101000a81548160ff021916908360ff160217905550600760009054906101000a900460ff1660ff1660056000600760009054906101000a900460ff1660ff168152602001908152602001600020600001819055506040518060400160405280601281526020017f4e6574776f726b20427573696e6573732043000000000000000000000000000081525060056000600760009054906101000a900460ff1660ff168152602001908152602001600020600101908051906020019062000bf092919062002723565b506040518060400160405280600481526020017f313233360000000000000000000000000000000000000000000000000000000081525060056000600760009054906101000a900460ff1660ff168152602001908152602001600020600201908051906020019062000c6492919062002723565b506040518060400160405280600681526020017f564154206e6f000000000000000000000000000000000000000000000000000081525060056000600760009054906101000a900460ff1660ff168152602001908152602001600020600301908051906020019062000cd892919062002723565b506040518060400160405280601381526020017f537472656574206e6f206172656120636f64650000000000000000000000000081525060056000600760009054906101000a900460ff1660ff168152602001908152602001600020600401908051906020019062000d4c92919062002723565b506040518060400160405280600881526020017f53696320636f646500000000000000000000000000000000000000000000000081525060056000600760009054906101000a900460ff1660ff168152602001908152602001600020600501908051906020019062000dc092919062002723565b506040518060400160405280600581526020017f526f73736900000000000000000000000000000000000000000000000000000081525060056000600760009054906101000a900460ff1660ff168152602001908152602001600020600601908051906020019062000e3492919062002723565b506040518060400160405280600581526020017f56616c696400000000000000000000000000000000000000000000000000000081525060056000600760009054906101000a900460ff1660ff168152602001908152602001600020600701908051906020019062000ea892919062002723565b506040518060400160405280600f81526020017f4578616d706c652064657461696c73000000000000000000000000000000000081525060056000600760009054906101000a900460ff1660ff168152602001908152602001600020600801908051906020019062000f1c92919062002723565b506040518060400160405280600a81526020017f323032382f30352f31320000000000000000000000000000000000000000000081525060056000600760009054906101000a900460ff1660ff168152602001908152602001600020600a01908051906020019062000f9092919062002723565b506040518060400160405280601381526020017f4f7267616e6f20646920636f6e74726f6c6c6f0000000000000000000000000081525060056000600760009054906101000a900460ff1660ff168152602001908152602001600020600e0190805190602001906200100492919062002723565b506040518060600160405280602a81526020016200694c602a913960056000600760009054906101000a900460ff1660ff168152602001908152602001600020600f0190805190602001906200105c92919062002723565b506001600760009054906101000a900460ff1601600760006101000a81548160ff021916908360ff160217905550600760009054906101000a900460ff1660ff1660056000600760009054906101000a900460ff1660ff168152602001908152602001600020600001819055506040518060400160405280600981526020017f424e20492e4d2e472e000000000000000000000000000000000000000000000081525060056000600760009054906101000a900460ff1660ff16815260200190815260200160002060010190805190602001906200113c92919062002723565b506040518060400160405280600481526020017f313233370000000000000000000000000000000000000000000000000000000081525060056000600760009054906101000a900460ff1660ff1681526020019081526020016000206002019080519060200190620011b092919062002723565b506040518060400160405280600681526020017f564154206e6f000000000000000000000000000000000000000000000000000081525060056000600760009054906101000a900460ff1660ff16815260200190815260200160002060030190805190602001906200122492919062002723565b506040518060400160405280601381526020017f537472656574206e6f206172656120636f64650000000000000000000000000081525060056000600760009054906101000a900460ff1660ff16815260200190815260200160002060040190805190602001906200129892919062002723565b506040518060400160405280600881526020017f53696320636f646500000000000000000000000000000000000000000000000081525060056000600760009054906101000a900460ff1660ff16815260200190815260200160002060050190805190602001906200130c92919062002723565b506040518060400160405280600581526020017f566572646900000000000000000000000000000000000000000000000000000081525060056000600760009054906101000a900460ff1660ff16815260200190815260200160002060060190805190602001906200138092919062002723565b506040518060400160405280600581526020017f56616c696400000000000000000000000000000000000000000000000000000081525060056000600760009054906101000a900460ff1660ff1681526020019081526020016000206007019080519060200190620013f492919062002723565b506040518060400160405280600f81526020017f4578616d706c652064657461696c73000000000000000000000000000000000081525060056000600760009054906101000a900460ff1660ff16815260200190815260200160002060080190805190602001906200146892919062002723565b506040518060400160405280600981526020017f323033352f312f3132000000000000000000000000000000000000000000000081525060056000600760009054906101000a900460ff1660ff168152602001908152602001600020600a019080519060200190620014dc92919062002723565b506040518060400160405280601381526020017f4f7267616e6f20646920636f6e74726f6c6c6f0000000000000000000000000081525060056000600760009054906101000a900460ff1660ff168152602001908152602001600020600e0190805190602001906200155092919062002723565b506040518060600160405280602a8152602001620069a0602a913960056000600760009054906101000a900460ff1660ff168152602001908152602001600020600f019080519060200190620015a892919062002723565b5060016005600060018152602001908152602001600020600c0181905550826005600060018152602001908152602001600020600d0160006005600060018152602001908152602001600020600c0154815260200190815260200160002060006101000a81548173ffffffffffffffffffffffffffffffffffffffff021916908373ffffffffffffffffffffffffffffffffffffffff16021790555082600560006001815260200190815260200160002060090160008573ffffffffffffffffffffffffffffffffffffffff1673ffffffffffffffffffffffffffffffffffffffff16815260200190815260200160002060000160006101000a81548173ffffffffffffffffffffffffffffffffffffffff021916908373ffffffffffffffffffffffffffffffffffffffff1602179055506040518060400160405280600681526020017f6d656d6265720000000000000000000000000000000000000000000000000000815250600560006001815260200190815260200160002060090160008573ffffffffffffffffffffffffffffffffffffffff1673ffffffffffffffffffffffffffffffffffffffff16815260200190815260200160002060010190805190602001906200177c92919062002723565b50614e20600560006001815260200190815260200160002060090160008573ffffffffffffffffffffffffffffffffffffffff1673ffffffffffffffffffffffffffffffffffffffff16815260200190815260200160002060020181905550612397600560006001815260200190815260200160002060090160008573ffffffffffffffffffffffffffffffffffffffff1673ffffffffffffffffffffffffffffffffffffffff168152602001908152602001600020600301819055506040518060400160405280600c81526020017f3135303020436c61737320420000000000000000000000000000000000000000815250600560006001815260200190815260200160002060090160008573ffffffffffffffffffffffffffffffffffffffff1673ffffffffffffffffffffffffffffffffffffffff1681526020019081526020016000206004019080519060200190620018db92919062002723565b506040518060400160405280600781526020017f4269616e63686900000000000000000000000000000000000000000000000000815250600560006001815260200190815260200160002060090160008573ffffffffffffffffffffffffffffffffffffffff1673ffffffffffffffffffffffffffffffffffffffff16815260200190815260200160002060050190805190602001906200197e92919062002723565b50600660008473ffffffffffffffffffffffffffffffffffffffff1673ffffffffffffffffffffffffffffffffffffffff1681526020019081526020016000206001908060018154018082558091505090600182039060005260206000209060209182820401919006909192909190916101000a81548160ff021916908360ff1602179055505060026005600060018152602001908152602001600020600c0181905550806005600060018152602001908152602001600020600d0160006005600060018152602001908152602001600020600c0154815260200190815260200160002060006101000a81548173ffffffffffffffffffffffffffffffffffffffff021916908373ffffffffffffffffffffffffffffffffffffffff16021790555080600560006001815260200190815260200160002060090160008373ffffffffffffffffffffffffffffffffffffffff1673ffffffffffffffffffffffffffffffffffffffff16815260200190815260200160002060000160006101000a81548173ffffffffffffffffffffffffffffffffffffffff021916908373ffffffffffffffffffffffffffffffffffffffff1602179055506040518060400160405280600581526020017f61646d696e000000000000000000000000000000000000000000000000000000815250600560006001815260200190815260200160002060090160008373ffffffffffffffffffffffffffffffffffffffff1673ffffffffffffffffffffffffffffffffffffffff168152602001908152602001600020600101908051906020019062001bd892919062002723565b50619c40600560006001815260200190815260200160002060090160008373ffffffffffffffffffffffffffffffffffffffff1673ffffffffffffffffffffffffffffffffffffffff16815260200190815260200160002060020181905550612398600560006001815260200190815260200160002060090160008373ffffffffffffffffffffffffffffffffffffffff1673ffffffffffffffffffffffffffffffffffffffff168152602001908152602001600020600301819055506040518060400160405280600c81526020017f3130303020436c61737320410000000000000000000000000000000000000000815250600560006001815260200190815260200160002060090160008373ffffffffffffffffffffffffffffffffffffffff1673ffffffffffffffffffffffffffffffffffffffff168152602001908152602001600020600401908051906020019062001d3792919062002723565b506040518060400160405280600581526020017f477265636f000000000000000000000000000000000000000000000000000000815250600560006001815260200190815260200160002060090160008373ffffffffffffffffffffffffffffffffffffffff1673ffffffffffffffffffffffffffffffffffffffff168152602001908152602001600020600501908051906020019062001dda92919062002723565b50600660008273ffffffffffffffffffffffffffffffffffffffff1673ffffffffffffffffffffffffffffffffffffffff1681526020019081526020016000206001908060018154018082558091505090600182039060005260206000209060209182820401919006909192909190916101000a81548160ff021916908360ff1602179055505060016005600060028152602001908152602001600020600c0181905550816005600060028152602001908152602001600020600d0160006005600060028152602001908152602001600020600c0154815260200190815260200160002060006101000a81548173ffffffffffffffffffffffffffffffffffffffff021916908373ffffffffffffffffffffffffffffffffffffffff16021790555081600560006002815260200190815260200160002060090160008473ffffffffffffffffffffffffffffffffffffffff1673ffffffffffffffffffffffffffffffffffffffff16815260200190815260200160002060000160006101000a81548173ffffffffffffffffffffffffffffffffffffffff021916908373ffffffffffffffffffffffffffffffffffffffff1602179055506040518060400160405280600681526020017f6d656d6265720000000000000000000000000000000000000000000000000000815250600560006002815260200190815260200160002060090160008473ffffffffffffffffffffffffffffffffffffffff1673ffffffffffffffffffffffffffffffffffffffff16815260200190815260200160002060010190805190602001906200203492919062002723565b50620186a0600560006002815260200190815260200160002060090160008473ffffffffffffffffffffffffffffffffffffffff1673ffffffffffffffffffffffffffffffffffffffff16815260200190815260200160002060020181905550612399600560006002815260200190815260200160002060090160008473ffffffffffffffffffffffffffffffffffffffff1673ffffffffffffffffffffffffffffffffffffffff168152602001908152602001600020600301819055506040518060400160405280600c81526020017f3130303020436c61737320430000000000000000000000000000000000000000815250600560006002815260200190815260200160002060090160008473ffffffffffffffffffffffffffffffffffffffff1673ffffffffffffffffffffffffffffffffffffffff16815260200190815260200160002060040190805190602001906200219492919062002723565b506040518060400160405280600881526020017f4573706f7369746f000000000000000000000000000000000000000000000000815250600560006002815260200190815260200160002060090160008473ffffffffffffffffffffffffffffffffffffffff1673ffffffffffffffffffffffffffffffffffffffff16815260200190815260200160002060050190805190602001906200223792919062002723565b50600660008373ffffffffffffffffffffffffffffffffffffffff1673ffffffffffffffffffffffffffffffffffffffff1681526020019081526020016000206002908060018154018082558091505090600182039060005260206000209060209182820401919006909192909190916101000a81548160ff021916908360ff1602179055505060026005600060028152602001908152602001600020600c0181905550806005600060028152602001908152602001600020600d0160006005600060028152602001908152602001600020600c0154815260200190815260200160002060006101000a81548173ffffffffffffffffffffffffffffffffffffffff021916908373ffffffffffffffffffffffffffffffffffffffff16021790555080600560006002815260200190815260200160002060090160008373ffffffffffffffffffffffffffffffffffffffff1673ffffffffffffffffffffffffffffffffffffffff16815260200190815260200160002060000160006101000a81548173ffffffffffffffffffffffffffffffffffffffff021916908373ffffffffffffffffffffffffffffffffffffffff1602179055506040518060400160405280600581526020017f61646d696e000000000000000000000000000000000000000000000000000000815250600560006002815260200190815260200160002060090160008373ffffffffffffffffffffffffffffffffffffffff1673ffffffffffffffffffffffffffffffffffffffff16815260200190815260200160002060010190805190602001906200249192919062002723565b5061c350600560006002815260200190815260200160002060090160008373ffffffffffffffffffffffffffffffffffffffff1673ffffffffffffffffffffffffffffffffffffffff1681526020019081526020016000206002018190555061239a600560006002815260200190815260200160002060090160008373ffffffffffffffffffffffffffffffffffffffff1673ffffffffffffffffffffffffffffffffffffffff168152602001908152602001600020600301819055506040518060400160405280600c81526020017f3130303020436c61737320440000000000000000000000000000000000000000815250600560006002815260200190815260200160002060090160008373ffffffffffffffffffffffffffffffffffffffff1673ffffffffffffffffffffffffffffffffffffffff1681526020019081526020016000206004019080519060200190620025f092919062002723565b506040518060400160405280600581526020017f477265636f000000000000000000000000000000000000000000000000000000815250600560006002815260200190815260200160002060090160008373ffffffffffffffffffffffffffffffffffffffff1673ffffffffffffffffffffffffffffffffffffffff16815260200190815260200160002060050190805190602001906200269392919062002723565b50600660008273ffffffffffffffffffffffffffffffffffffffff1673ffffffffffffffffffffffffffffffffffffffff1681526020019081526020016000206002908060018154018082558091505090600182039060005260206000209060209182820401919006909192909190916101000a81548160ff021916908360ff16021790555050505050620027d2565b828054600181600116156101000203166002900490600052602060002090601f016020900481019282601f106200276657805160ff191683800117855562002797565b8280016001018555821562002797579182015b828111156200279657825182559160200191906001019062002779565b5b509050620027a69190620027aa565b5090565b620027cf91905b80821115620027cb576000816000905550600101620027b1565b5090565b90565b61416a80620027e26000396000f3fe608060405234801561001057600080fd5b50600436106100f55760003560e01c8063775a8f5e11610097578063cef72b1011610066578063cef72b1014610f57578063d07cf92414611181578063f76f950e146112c9578063f8ca4a3814611370576100f5565b8063775a8f5e14610c595780638f7714ec14610d005780639ebc7fa014610d1e578063bed34bba14610ded576100f5565b80634ca6cfc5116100d35780634ca6cfc5146104595780635828455914610afb5780635d116c5814610b5a5780635e57966d14610b9c576100f5565b806327dc297e146100fa57806333c9ba65146101bf57806338bbfa50146102fd575b600080fd5b6101bd6004803603604081101561011057600080fd5b81019080803590602001909291908035906020019064010000000081111561013757600080fd5b82018360208201111561014957600080fd5b8035906020019184600183028401116401000000008311171561016b57600080fd5b91908080601f016020809104026020016040519081016040528093929190818152602001838380828437600081840152601f19601f8201169050808301925050505050505091929192905050506114a4565b005b610282600480360360408110156101d557600080fd5b8101908080359060200190929190803590602001906401000000008111156101fc57600080fd5b82018360208201111561020e57600080fd5b8035906020019184600183028401116401000000008311171561023057600080fd5b91908080601f016020809104026020016040519081016040528093929190818152602001838380828437600081840152601f19601f8201169050808301925050505050505091929192905050506114e7565b6040518080602001828103825283818151815260200191508051906020019080838360005b838110156102c25780820151818401526020810190506102a7565b50505050905090810190601f1680156102ef5780820380516001836020036101000a031916815260200191505b509250505060405180910390f35b6104576004803603606081101561031357600080fd5b81019080803590602001909291908035906020019064010000000081111561033a57600080fd5b82018360208201111561034c57600080fd5b8035906020019184600183028401116401000000008311171561036e57600080fd5b91908080601f016020809104026020016040519081016040528093929190818152602001838380828437600081840152601f19601f820116905080830192505050505050509192919290803590602001906401000000008111156103d157600080fd5b8201836020820111156103e357600080fd5b8035906020019184600183028401116401000000008311171561040557600080fd5b91908080601f016020809104026020016040519081016040528093929190818152602001838380828437600081840152601f19601f82011690508083019250505050505050919291929050505061225c565b005b610af9600480360361016081101561047057600080fd5b810190808035906020019064010000000081111561048d57600080fd5b82018360208201111561049f57600080fd5b803590602001918460018302840111640100000000831117156104c157600080fd5b91908080601f016020809104026020016040519081016040528093929190818152602001838380828437600081840152601f19601f8201169050808301925050505050505091929192908035906020019064010000000081111561052457600080fd5b82018360208201111561053657600080fd5b8035906020019184600183028401116401000000008311171561055857600080fd5b91908080601f016020809104026020016040519081016040528093929190818152602001838380828437600081840152601f19601f820116905080830192505050505050509192919290803590602001906401000000008111156105bb57600080fd5b8201836020820111156105cd57600080fd5b803590602001918460018302840111640100000000831117156105ef57600080fd5b91908080601f016020809104026020016040519081016040528093929190818152602001838380828437600081840152601f19601f8201169050808301925050505050505091929192908035906020019064010000000081111561065257600080fd5b82018360208201111561066457600080fd5b8035906020019184600183028401116401000000008311171561068657600080fd5b91908080601f016020809104026020016040519081016040528093929190818152602001838380828437600081840152601f19601f820116905080830192505050505050509192919290803590602001906401000000008111156106e957600080fd5b8201836020820111156106fb57600080fd5b8035906020019184600183028401116401000000008311171561071d57600080fd5b91908080601f016020809104026020016040519081016040528093929190818152602001838380828437600081840152601f19601f8201169050808301925050505050505091929192908035906020019064010000000081111561078057600080fd5b82018360208201111561079257600080fd5b803590602001918460018302840111640100000000831117156107b457600080fd5b91908080601f016020809104026020016040519081016040528093929190818152602001838380828437600081840152601f19601f8201169050808301925050505050505091929192908035906020019064010000000081111561081757600080fd5b82018360208201111561082957600080fd5b8035906020019184600183028401116401000000008311171561084b57600080fd5b91908080601f016020809104026020016040519081016040528093929190818152602001838380828437600081840152601f19601f820116905080830192505050505050509192919290803590602001906401000000008111156108ae57600080fd5b8201836020820111156108c057600080fd5b803590602001918460018302840111640100000000831117156108e257600080fd5b91908080601f016020809104026020016040519081016040528093929190818152602001838380828437600081840152601f19601f8201169050808301925050505050505091929192908035906020019064010000000081111561094557600080fd5b82018360208201111561095757600080fd5b8035906020019184600183028401116401000000008311171561097957600080fd5b91908080601f016020809104026020016040519081016040528093929190818152602001838380828437600081840152601f19601f820116905080830192505050505050509192919290803590602001906401000000008111156109dc57600080fd5b8201836020820111156109ee57600080fd5b80359060200191846001830284011164010000000083111715610a1057600080fd5b91908080601f016020809104026020016040519081016040528093929190818152602001838380828437600081840152601f19601f82011690508083019250505050505050919291929080359060200190640100000000811115610a7357600080fd5b820183602082011115610a8557600080fd5b80359060200191846001830284011164010000000083111715610aa757600080fd5b91908080601f016020809104026020016040519081016040528093929190818152602001838380828437600081840152601f19601f820116905080830192505050505050509192919290505050612261565b005b610b03612579565b6040518080602001828103825283818151815260200191508051906020019060200280838360005b83811015610b46578082015181840152602081019050610b2b565b505050509050019250505060405180910390f35b610b8660048036036020811015610b7057600080fd5b8101908080359060200190929190505050612634565b6040518082815260200191505060405180910390f35b610bde60048036036020811015610bb257600080fd5b81019080803573ffffffffffffffffffffffffffffffffffffffff169060200190929190505050612654565b6040518080602001828103825283818151815260200191508051906020019080838360005b83811015610c1e578082015181840152602081019050610c03565b50505050905090810190601f168015610c4b5780820380516001836020036101000a031916815260200191505b509250505060405180910390f35b610c8560048036036020811015610c6f57600080fd5b81019080803590602001909291905050506128eb565b6040518080602001828103825283818151815260200191508051906020019080838360005b83811015610cc5578082015181840152602081019050610caa565b50505050905090810190601f168015610cf25780820380516001836020036101000a031916815260200191505b509250505060405180910390f35b610d0861299c565b6040518082815260200191505060405180910390f35b610dd760048036036020811015610d3457600080fd5b8101908080359060200190640100000000811115610d5157600080fd5b820183602082011115610d6357600080fd5b80359060200191846001830284011164010000000083111715610d8557600080fd5b91908080601f016020809104026020016040519081016040528093929190818152602001838380828437600081840152601f19601f8201169050808301925050505050505091929192905050506129b6565b6040518082815260200191505060405180910390f35b610f3d60048036036040811015610e0357600080fd5b8101908080359060200190640100000000811115610e2057600080fd5b820183602082011115610e3257600080fd5b80359060200191846001830284011164010000000083111715610e5457600080fd5b91908080601f016020809104026020016040519081016040528093929190818152602001838380828437600081840152601f19601f82011690508083019250505050505050919291929080359060200190640100000000811115610eb757600080fd5b820183602082011115610ec957600080fd5b80359060200191846001830284011164010000000083111715610eeb57600080fd5b91908080601f016020809104026020016040519081016040528093929190818152602001838380828437600081840152601f19601f820116905080830192505050505050509192919290505050612b8f565b604051808215151515815260200191505060405180910390f35b61117f600480360360e0811015610f6d57600080fd5b81019080803573ffffffffffffffffffffffffffffffffffffffff16906020019092919080359060200190640100000000811115610faa57600080fd5b820183602082011115610fbc57600080fd5b80359060200191846001830284011164010000000083111715610fde57600080fd5b91908080601f016020809104026020016040519081016040528093929190818152602001838380828437600081840152601f19601f82011690508083019250505050505050919291929080359060200190929190803590602001909291908035906020019064010000000081111561105557600080fd5b82018360208201111561106757600080fd5b8035906020019184600183028401116401000000008311171561108957600080fd5b91908080601f016020809104026020016040519081016040528093929190818152602001838380828437600081840152601f19601f820116905080830192505050505050509192919290803590602001906401000000008111156110ec57600080fd5b8201836020820111156110fe57600080fd5b8035906020019184600183028401116401000000008311171561112057600080fd5b91908080601f016020809104026020016040519081016040528093929190818152602001838380828437600081840152601f19601f820116905080830192505050505050509192919290803560ff169060200190929190505050612c82565b005b61124e6004803603606081101561119757600080fd5b810190808035906020019092919080359060200190929190803590602001906401000000008111156111c857600080fd5b8201836020820111156111da57600080fd5b803590602001918460018302840111640100000000831117156111fc57600080fd5b91908080601f016020809104026020016040519081016040528093929190818152602001838380828437600081840152601f19601f82011690508083019250505050505050919291929050505061306a565b6040518080602001828103825283818151815260200191508051906020019080838360005b8381101561128e578082015181840152602081019050611273565b50505050905090810190601f1680156112bb5780820380516001836020036101000a031916815260200191505b509250505060405180910390f35b6112f5600480360360208110156112df57600080fd5b810190808035906020019092919050505061386e565b6040518080602001828103825283818151815260200191508051906020019080838360005b8381101561133557808201518184015260208101905061131a565b50505050905090810190601f1680156113625780820380516001836020036101000a031916815260200191505b509250505060405180910390f35b6114296004803603602081101561138657600080fd5b81019080803590602001906401000000008111156113a357600080fd5b8201836020820111156113b557600080fd5b803590602001918460018302840111640100000000831117156113d757600080fd5b91908080601f016020809104026020016040519081016040528093929190818152602001838380828437600081840152601f19601f8201169050808301925050505050505091929192905050506139a8565b6040518080602001828103825283818151815260200191508051906020019080838360005b8381101561146957808201518184015260208101905061144e565b50505050905090810190601f1680156114965780820380516001836020036101000a031916815260200191505b509250505060405180910390f35b6114e3828260006040519080825280601f01601f1916602001820160405280156114dd5781602001600182028038833980820191505090505b5061225c565b5050565b6060611528826040518060400160405280601381526020017f627573696e6573734e6574776f726b4e616d6500000000000000000000000000815250612b8f565b156115e357600560008481526020019081526020016000206001018054600181600116156101000203166002900480601f0160208091040260200160405190810160405280929190818152602001828054600181600116156101000203166002900480156115d75780601f106115ac576101008083540402835291602001916115d7565b820191906000526020600020905b8154815290600101906020018083116115ba57829003601f168201915b50505050509050612256565b611622826040518060400160405280601181526020017f627573696e6573734e6574776f726b4964000000000000000000000000000000815250612b8f565b156116dd57600560008481526020019081526020016000206002018054600181600116156101000203166002900480601f0160208091040260200160405190810160405280929190818152602001828054600181600116156101000203166002900480156116d15780601f106116a6576101008083540402835291602001916116d1565b820191906000526020600020905b8154815290600101906020018083116116b457829003601f168201915b50505050509050612256565b61171c826040518060400160405280600581526020017f7461784964000000000000000000000000000000000000000000000000000000815250612b8f565b156117d757600560008481526020019081526020016000206003018054600181600116156101000203166002900480601f0160208091040260200160405190810160405280929190818152602001828054600181600116156101000203166002900480156117cb5780601f106117a0576101008083540402835291602001916117cb565b820191906000526020600020905b8154815290600101906020018083116117ae57829003601f168201915b50505050509050612256565b611816826040518060400160405280600f81526020017f627573696e657373416464726573730000000000000000000000000000000000815250612b8f565b156118d157600560008481526020019081526020016000206004018054600181600116156101000203166002900480601f0160208091040260200160405190810160405280929190818152602001828054600181600116156101000203166002900480156118c55780601f1061189a576101008083540402835291602001916118c5565b820191906000526020600020905b8154815290600101906020018083116118a857829003601f168201915b50505050509050612256565b611910826040518060400160405280600c81526020017f627573696e657373436f64650000000000000000000000000000000000000000815250612b8f565b156119cb57600560008481526020019081526020016000206005018054600181600116156101000203166002900480601f0160208091040260200160405190810160405280929190818152602001828054600181600116156101000203166002900480156119bf5780601f10611994576101008083540402835291602001916119bf565b820191906000526020600020905b8154815290600101906020018083116119a257829003601f168201915b50505050509050612256565b611a0a826040518060400160405280600981526020017f61646d696e4e616d650000000000000000000000000000000000000000000000815250612b8f565b15611ac557600560008481526020019081526020016000206006018054600181600116156101000203166002900480601f016020809104026020016040519081016040528092919081815260200182805460018160011615610100020316600290048015611ab95780601f10611a8e57610100808354040283529160200191611ab9565b820191906000526020600020905b815481529060010190602001808311611a9c57829003601f168201915b50505050509050612256565b611b04826040518060400160405280600681526020017f7374617475730000000000000000000000000000000000000000000000000000815250612b8f565b15611bbf57600560008481526020019081526020016000206007018054600181600116156101000203166002900480601f016020809104026020016040519081016040528092919081815260200182805460018160011615610100020316600290048015611bb35780601f10611b8857610100808354040283529160200191611bb3565b820191906000526020600020905b815481529060010190602001808311611b9657829003601f168201915b50505050509050612256565b611bfe826040518060400160405280600781526020017f64657461696c7300000000000000000000000000000000000000000000000000815250612b8f565b15611cb957600560008481526020019081526020016000206008018054600181600116156101000203166002900480601f016020809104026020016040519081016040528092919081815260200182805460018160011615610100020316600290048015611cad5780601f10611c8257610100808354040283529160200191611cad565b820191906000526020600020905b815481529060010190602001808311611c9057829003601f168201915b50505050509050612256565b611cf8826040518060400160405280600481526020017f726f6c6500000000000000000000000000000000000000000000000000000000815250612b8f565b15611df3576005600084815260200190815260200160002060090160003373ffffffffffffffffffffffffffffffffffffffff1673ffffffffffffffffffffffffffffffffffffffff1681526020019081526020016000206001018054600181600116156101000203166002900480601f016020809104026020016040519081016040528092919081815260200182805460018160011615610100020316600290048015611de75780601f10611dbc57610100808354040283529160200191611de7565b820191906000526020600020905b815481529060010190602001808311611dca57829003601f168201915b50505050509050612256565b611e32826040518060400160405280600281526020017f6964000000000000000000000000000000000000000000000000000000000000815250612b8f565b15611e5d57611e56600560008581526020019081526020016000206000015461386e565b9050612256565b611e9c826040518060400160405280600f81526020017f647572617461436f6e74726174746f0000000000000000000000000000000000815250612b8f565b15611f575760056000848152602001908152602001600020600a018054600181600116156101000203166002900480601f016020809104026020016040519081016040528092919081815260200182805460018160011615610100020316600290048015611f4b5780601f10611f2057610100808354040283529160200191611f4b565b820191906000526020600020905b815481529060010190602001808311611f2e57829003601f168201915b50505050509050612256565b611f96826040518060400160405280600b81526020017f666f6e646f436f6d756e65000000000000000000000000000000000000000000815250612b8f565b156120615761205a612055600560008681526020019081526020016000206001018054600181600116156101000203166002900480601f01602080910402602001604051908101604052809291908181526020018280546001816001161561010002031660029004801561204b5780601f106120205761010080835404028352916020019161204b565b820191906000526020600020905b81548152906001019060200180831161202e57829003601f168201915b50505050506129b6565b61386e565b9050612256565b6120a0826040518060400160405280601081526020017f6d616e6167656d656e74456e7469747900000000000000000000000000000000815250612b8f565b1561215b5760056000848152602001908152602001600020600e018054600181600116156101000203166002900480601f01602080910402602001604051908101604052809291908181526020018280546001816001161561010002031660029004801561214f5780601f106121245761010080835404028352916020019161214f565b820191906000526020600020905b81548152906001019060200180831161213257829003601f168201915b50505050509050612256565b61219a826040518060400160405280600a81526020017f73686172656446756e6400000000000000000000000000000000000000000000815250612b8f565b156122555760056000848152602001908152602001600020600f018054600181600116156101000203166002900480601f0160208091040260200160405190810160405280929190818152602001828054600181600116156101000203166002900480156122495780601f1061221e57610100808354040283529160200191612249565b820191906000526020600020905b81548152906001019060200180831161222c57829003601f168201915b50505050509050612256565b5b92915050565b505050565b6001600760009054906101000a900460ff1601600760006101000a81548160ff021916908360ff160217905550600760009054906101000a900460ff1660ff1660056000600760009054906101000a900460ff1660ff168152602001908152602001600020600001819055508a60056000600760009054906101000a900460ff1660ff1681526020019081526020016000206001019080519060200190612309929190614099565b508960056000600760009054906101000a900460ff1660ff1681526020019081526020016000206002019080519060200190612346929190614099565b508860056000600760009054906101000a900460ff1660ff1681526020019081526020016000206003019080519060200190612383929190614099565b508760056000600760009054906101000a900460ff1660ff16815260200190815260200160002060040190805190602001906123c0929190614099565b508660056000600760009054906101000a900460ff1660ff16815260200190815260200160002060050190805190602001906123fd929190614099565b508560056000600760009054906101000a900460ff1660ff168152602001908152602001600020600601908051906020019061243a929190614099565b508460056000600760009054906101000a900460ff1660ff1681526020019081526020016000206007019080519060200190612477929190614099565b508360056000600760009054906101000a900460ff1660ff16815260200190815260200160002060080190805190602001906124b4929190614099565b508260056000600760009054906101000a900460ff1660ff168152602001908152602001600020600a0190805190602001906124f1929190614099565b508160056000600760009054906101000a900460ff1660ff168152602001908152602001600020600e01908051906020019061252e929190614099565b508060056000600760009054906101000a900460ff1660ff168152602001908152602001600020600f01908051906020019061256b929190614099565b505050505050505050505050565b6060600660003373ffffffffffffffffffffffffffffffffffffffff1673ffffffffffffffffffffffffffffffffffffffff16815260200190815260200160002080548060200260200160405190810160405280929190818152602001828054801561262a57602002820191906000526020600020906000905b82829054906101000a900460ff1660ff16815260200190600101906020826000010492830192600103820291508084116125f35790505b5050505050905090565b600060056000838152602001908152602001600020600c01549050919050565b606060008273ffffffffffffffffffffffffffffffffffffffff1660001b905060606040518060400160405280601081526020017f30313233343536373839616263646566000000000000000000000000000000008152509050606060336040519080825280601f01601f1916602001820160405280156126e45781602001600182028038833980820191505090505b5090507f300000000000000000000000000000000000000000000000000000000000000081600081518110151561271757fe5b9060200101907effffffffffffffffffffffffffffffffffffffffffffffffffffffffffffff1916908160001a9053507f780000000000000000000000000000000000000000000000000000000000000081600181518110151561277757fe5b9060200101907effffffffffffffffffffffffffffffffffffffffffffffffffffffffffffff1916908160001a90535060008090505b60148110156128df5782600485600c84016020811015156127ca57fe5b1a60f81b7effffffffffffffffffffffffffffffffffffffffffffffffffffffffffffff1916901c60f81c60ff1681518110151561280457fe5b90602001015160f81c60f81b826002830260020181518110151561282457fe5b9060200101907effffffffffffffffffffffffffffffffffffffffffffffffffffffffffffff1916908160001a90535082600f60f81b85600c840160208110151561286b57fe5b1a60f81b1660f81c60ff1681518110151561288257fe5b90602001015160f81c60f81b82600283026003018151811015156128a257fe5b9060200101907effffffffffffffffffffffffffffffffffffffffffffffffffffffffffffff1916908160001a90535080806001019150506127ad565b50809350505050919050565b606060206040519080825280601f01601f1916602001820160405280156129215781602001600182028038833980820191505090505b50905060008090505b60208110156129965780601f0360080260020a8381151561294757fe5b0460f81b828281518110151561295957fe5b9060200101907effffffffffffffffffffffffffffffffffffffffffffffffffffffffffffff1916908160001a905350808060010191505061292a565b50919050565b6000600760009054906101000a900460ff1660ff16905090565b600080600190505b600760009054906101000a900460ff1660ff1681111515612b8657612a91600560008381526020019081526020016000206001018054600181600116156101000203166002900480601f016020809104026020016040519081016040528092919081815260200182805460018160011615610100020316600290048015612a865780601f10612a5b57610100808354040283529160200191612a86565b820191906000526020600020905b815481529060010190602001808311612a6957829003601f168201915b505050505084612b8f565b15612b79576000600190505b60056000828152602001908152602001600020600c015481111515612b7757600060056000848152602001908152602001600020600d01600083815260200190815260200160002060009054906101000a900473ffffffffffffffffffffffffffffffffffffffff16905060006005600085815260200190815260200160002060090160008373ffffffffffffffffffffffffffffffffffffffff1673ffffffffffffffffffffffffffffffffffffffff168152602001908152602001600020905080600201548501945050508080600101915050612a9d565b505b80806001019150506129be565b50809050919050565b6000816040516020018082805190602001908083835b602083101515612bca5780518252602082019150602081019050602083039250612ba5565b6001836020036101000a03801982511681845116808217855250505050505090500191505060405160208183030381529060405280519060200120836040516020018082805190602001908083835b602083101515612c3e5780518252602082019150602081019050602083039250612c19565b6001836020036101000a0380198251168184511680821785525050505050509050019150506040516020818303038152906040528051906020012014905092915050565b6001600560008360ff168152602001908152602001600020600c015401600560008360ff168152602001908152602001600020600c018190555086600560008360ff168152602001908152602001600020600d016000600560008560ff168152602001908152602001600020600c0154815260200190815260200160002060006101000a81548173ffffffffffffffffffffffffffffffffffffffff021916908373ffffffffffffffffffffffffffffffffffffffff16021790555086600560008360ff16815260200190815260200160002060090160008973ffffffffffffffffffffffffffffffffffffffff1673ffffffffffffffffffffffffffffffffffffffff16815260200190815260200160002060000160006101000a81548173ffffffffffffffffffffffffffffffffffffffff021916908373ffffffffffffffffffffffffffffffffffffffff16021790555085600560008360ff16815260200190815260200160002060090160008973ffffffffffffffffffffffffffffffffffffffff1673ffffffffffffffffffffffffffffffffffffffff1681526020019081526020016000206001019080519060200190612e43929190614099565b5084600560008360ff16815260200190815260200160002060090160008973ffffffffffffffffffffffffffffffffffffffff1673ffffffffffffffffffffffffffffffffffffffff1681526020019081526020016000206002018190555083600560008360ff16815260200190815260200160002060090160008973ffffffffffffffffffffffffffffffffffffffff1673ffffffffffffffffffffffffffffffffffffffff1681526020019081526020016000206003018190555082600560008360ff16815260200190815260200160002060090160008973ffffffffffffffffffffffffffffffffffffffff1673ffffffffffffffffffffffffffffffffffffffff1681526020019081526020016000206004019080519060200190612f6d929190614099565b5081600560008360ff16815260200190815260200160002060090160008973ffffffffffffffffffffffffffffffffffffffff1673ffffffffffffffffffffffffffffffffffffffff1681526020019081526020016000206005019080519060200190612fdb929190614099565b50600660008873ffffffffffffffffffffffffffffffffffffffff1673ffffffffffffffffffffffffffffffffffffffff16815260200190815260200160002081908060018154018082558091505090600182039060005260206000209060209182820401919006909192909190916101000a81548160ff021916908360ff1602179055505050505050505050565b6060600060056000868152602001908152602001600020600d01600085815260200190815260200160002060009054906101000a900473ffffffffffffffffffffffffffffffffffffffff1690506130f7836040518060400160405280600781526020017f6164647265737300000000000000000000000000000000000000000000000000815250612b8f565b156131835761317b6005600087815260200190815260200160002060090160008373ffffffffffffffffffffffffffffffffffffffff1673ffffffffffffffffffffffffffffffffffffffff16815260200190815260200160002060000160009054906101000a900473ffffffffffffffffffffffffffffffffffffffff16612654565b915050613867565b6131c2836040518060400160405280600481526020017f726f6c6500000000000000000000000000000000000000000000000000000000815250612b8f565b156132be576005600086815260200190815260200160002060090160008273ffffffffffffffffffffffffffffffffffffffff1673ffffffffffffffffffffffffffffffffffffffff1681526020019081526020016000206001018054600181600116156101000203166002900480601f0160208091040260200160405190810160405280929190818152602001828054600181600116156101000203166002900480156132b15780601f10613286576101008083540402835291602001916132b1565b820191906000526020600020905b81548152906001019060200180831161329457829003601f168201915b5050505050915050613867565b6132fd836040518060400160405280600581526020017f71756f7461000000000000000000000000000000000000000000000000000000815250612b8f565b156135445760606133a16133666005600089815260200190815260200160002060090160008573ffffffffffffffffffffffffffffffffffffffff1673ffffffffffffffffffffffffffffffffffffffff1681526020019081526020016000206002015461386e565b6040518060400160405280600381526020017f2024200000000000000000000000000000000000000000000000000000000000815250613d4d565b905061353b816040518060400160405280600381526020017f2028200000000000000000000000000000000000000000000000000000000000815250613500613497600560008c81526020019081526020016000206001018054600181600116156101000203166002900480601f01602080910402602001604051908101604052809291908181526020018280546001816001161561010002031660029004801561348d5780601f106134625761010080835404028352916020019161348d565b820191906000526020600020905b81548152906001019060200180831161347057829003601f168201915b50505050506129b6565b6064600560008d815260200190815260200160002060090160008973ffffffffffffffffffffffffffffffffffffffff1673ffffffffffffffffffffffffffffffffffffffff16815260200190815260200160002060020154028115156134fa57fe5b0461386e565b6040518060400160405280600481526020017f2025202900000000000000000000000000000000000000000000000000000000815250613d91565b92505050613867565b613583836040518060400160405280600c81526020017f766f74696e675269676874730000000000000000000000000000000000000000815250612b8f565b1561367f576005600086815260200190815260200160002060090160008273ffffffffffffffffffffffffffffffffffffffff1673ffffffffffffffffffffffffffffffffffffffff1681526020019081526020016000206004018054600181600116156101000203166002900480601f0160208091040260200160405190810160405280929190818152602001828054600181600116156101000203166002900480156136725780601f1061364757610100808354040283529160200191613672565b820191906000526020600020905b81548152906001019060200180831161365557829003601f168201915b5050505050915050613867565b6136be836040518060400160405280600481526020017f6e616d6500000000000000000000000000000000000000000000000000000000815250612b8f565b156137ba576005600086815260200190815260200160002060090160008273ffffffffffffffffffffffffffffffffffffffff1673ffffffffffffffffffffffffffffffffffffffff1681526020019081526020016000206005018054600181600116156101000203166002900480601f0160208091040260200160405190810160405280929190818152602001828054600181600116156101000203166002900480156137ad5780601f10613782576101008083540402835291602001916137ad565b820191906000526020600020905b81548152906001019060200180831161379057829003601f168201915b5050505050915050613867565b6137f9836040518060400160405280600581526020017f7461784964000000000000000000000000000000000000000000000000000000815250612b8f565b156138655761385d6005600087815260200190815260200160002060090160008373ffffffffffffffffffffffffffffffffffffffff1673ffffffffffffffffffffffffffffffffffffffff1681526020019081526020016000206003015461386e565b915050613867565b505b9392505050565b606060008214156138b6576040518060400160405280600181526020017f300000000000000000000000000000000000000000000000000000000000000081525090506139a3565b600082905060005b6000821415156138e4578080600101915050600a828115156138dc57fe5b0491506138be565b6060816040519080825280601f01601f1916602001820160405280156139195781602001600182028038833980820191505090505b50905060006001830390505b60008614151561399b57600a8681151561393b57fe5b0660300160f81b82828060019003935081518110151561395757fe5b9060200101907effffffffffffffffffffffffffffffffffffffffffffffffffffffffffffff1916908160001a905350600a8681151561399357fe5b049550613925565b819450505050505b919050565b60606000600190505b600760009054906101000a900460ff1660ff1681111515613d4457613a84600560008381526020019081526020016000206001018054600181600116156101000203166002900480601f016020809104026020016040519081016040528092919081815260200182805460018160011615610100020316600290048015613a795780601f10613a4e57610100808354040283529160200191613a79565b820191906000526020600020905b815481529060010190602001808311613a5c57829003601f168201915b505050505084612b8f565b15613d37576000600190505b60056000828152602001908152602001600020600c015481111515613d3557600060056000848152602001908152602001600020600d01600083815260200190815260200160002060009054906101000a900473ffffffffffffffffffffffffffffffffffffffff16905060006005600085815260200190815260200160002060090160008373ffffffffffffffffffffffffffffffffffffffff1673ffffffffffffffffffffffffffffffffffffffff168152602001908152602001600020905060606040518060400160405280600c81526020017f202d204d656d626572203a20000000000000000000000000000000000000000081525090506060613bd56040518060400160405280600a81526020017f61646472657373203a2000000000000000000000000000000000000000000000815250613bd086612654565b613d4d565b90506060613c246040518060400160405280600a81526020017f2c2071756f7461203a2000000000000000000000000000000000000000000000815250613c1f866002015461386e565b613d4d565b90506060613d036040518060400160405280600981526020017f2c20726f6c65203a200000000000000000000000000000000000000000000000815250866001018054600181600116156101000203166002900480601f016020809104026020016040519081016040528092919081815260200182805460018160011615610100020316600290048015613cf95780601f10613cce57610100808354040283529160200191613cf9565b820191906000526020600020905b815481529060010190602001808311613cdc57829003601f168201915b5050505050613d4d565b90506060613d1385858585613d91565b9050613d1f8a82613d4d565b9950505050505050508080600101915050613a90565b505b80806001019150506139b1565b50809050919050565b6060613d898383604051806020016040528060008152506040518060200160405280600081525060405180602001604052806000815250613db9565b905092915050565b6060613daf8585858560405180602001604052806000815250613db9565b9050949350505050565b6060808690506060869050606086905060608690506060869050606081518351855187518951010101016040519080825280601f01601f191660200182016040528015613e155781602001600182028038833980820191505090505b509050606081905060008090506000809050600090505b8851811015613ea0578881815181101515613e4357fe5b90602001015160f81c60f81b8383806001019450815181101515613e6357fe5b9060200101907effffffffffffffffffffffffffffffffffffffffffffffffffffffffffffff1916908160001a9053508080600101915050613e2c565b600090505b8751811015613f19578781815181101515613ebc57fe5b90602001015160f81c60f81b8383806001019450815181101515613edc57fe5b9060200101907effffffffffffffffffffffffffffffffffffffffffffffffffffffffffffff1916908160001a9053508080600101915050613ea5565b600090505b8651811015613f92578681815181101515613f3557fe5b90602001015160f81c60f81b8383806001019450815181101515613f5557fe5b9060200101907effffffffffffffffffffffffffffffffffffffffffffffffffffffffffffff1916908160001a9053508080600101915050613f1e565b600090505b855181101561400b578581815181101515613fae57fe5b90602001015160f81c60f81b8383806001019450815181101515613fce57fe5b9060200101907effffffffffffffffffffffffffffffffffffffffffffffffffffffffffffff1916908160001a9053508080600101915050613f97565b600090505b845181101561408457848181518110151561402757fe5b90602001015160f81c60f81b838380600101945081518110151561404757fe5b9060200101907effffffffffffffffffffffffffffffffffffffffffffffffffffffffffffff1916908160001a9053508080600101915050614010565b82995050505050505050505095945050505050565b828054600181600116156101000203166002900490600052602060002090601f016020900481019282601f106140da57805160ff1916838001178555614108565b82800160010185558215614108579182015b828111156141075782518255916020019190600101906140ec565b5b5090506141159190614119565b5090565b61413b91905b8082111561413757600081600090555060010161411f565b5090565b9056fea165627a7a72305820359fc3a96b07f425a14e3be85e0a302cff75b78104e012b073e09e316793e2d00029307844626633444362394137324344613839353136393443613632424133303866343265623033354332307834413544386331653739333844343346336430376438374238613234343464353932373666463031307861303939343545353336354438323238423662333041316232343865333032623664383641383861307838623737663533394561433444633831386134326241413961413436663332373262663163303837",
  "source": "pragma solidity >= 0.5.0 < 0.6.0;\nimport \"./oraclize.sol\";\n\ncontract AssociationStore  is usingOraclize {\n\n\n    mapping(uint => Association) private mapAssociation;\n    mapping(address => uint8[]) private mapAddressAssociation;\n\n    struct Association {\n        uint id;\n        string businessNetworkName;\n        string businessNetworkId;\n        string taxId;\n        string businessAddress;\n        string businessCode;\n        string adminName;\n        string status;\n        string details;\n        mapping(address => Member) members;\n        string durataContratto;\n        uint fondoComune;\n        uint countMember;\n        mapping(uint => address) membersLookup;\n        string managementEntity;\n        string sharedFund;\n    }\n\n    struct Member {\n        address addr;\n        string role;\n        uint quota;\n        uint taxId;\n        string votingRights;\n        string name;\n    }\n\n    uint8 private countTotalId = 0;\n\n    constructor(\n    ) public {\n\n        address bianchi=0x2831b64f4306F87931520DEd2f52F122618ED550 ;\n        address esposito=0xA62890aaf033f1268ffea22C52A4b7d6245e7886;\n        address greco=0xdcc52FC934d151fbcafA412b29FA8565A6A98B60;\n\n        countTotalId = countTotalId + 1;\n        mapAssociation[countTotalId].id = countTotalId;\n        mapAssociation[countTotalId].businessNetworkName = \"Network Business A\";\n        mapAssociation[countTotalId].businessNetworkId = \"1234\";\n        mapAssociation[countTotalId].taxId = \"VAT no\";\n        mapAssociation[countTotalId].businessAddress = \"Street no area code\";\n        mapAssociation[countTotalId].businessCode = \"Sic code\";\n        mapAssociation[countTotalId].adminName = \"Sempronio\";\n        mapAssociation[countTotalId].status = \"Valid\";\n        mapAssociation[countTotalId].details = \"Example details\";\n        mapAssociation[countTotalId].durataContratto = \"2025/06/30\";\n        mapAssociation[countTotalId].managementEntity = \"Organo di controllo\";\n        mapAssociation[countTotalId].sharedFund = \"0x8b77f539EaC4Dc818a42bAA9aA46f3272bf1c087\";\n\n        countTotalId = countTotalId + 1;\n        mapAssociation[countTotalId].id = countTotalId;\n        mapAssociation[countTotalId].businessNetworkName = \"Network Business B\";\n        mapAssociation[countTotalId].businessNetworkId = \"1235\";\n        mapAssociation[countTotalId].taxId = \"VAT no 2\";\n        mapAssociation[countTotalId].businessAddress = \"Street no area code 2\";\n        mapAssociation[countTotalId].businessCode = \"Sic code 2\";\n        mapAssociation[countTotalId].adminName = \"Caio\";\n        mapAssociation[countTotalId].status = \"Valid\";\n        mapAssociation[countTotalId].details = \"Example details 2\";\n        mapAssociation[countTotalId].durataContratto = \"2030/12/31\";\n        mapAssociation[countTotalId].managementEntity = \"Organo di controllo\";\n        mapAssociation[countTotalId].sharedFund = \"0x4A5D8c1e7938D43F3d07d87B8a2444d59276fF01\";\n\n        countTotalId = countTotalId + 1;\n        mapAssociation[countTotalId].id = countTotalId;\n        mapAssociation[countTotalId].businessNetworkName = \"Network Business C\";\n        mapAssociation[countTotalId].businessNetworkId = \"1236\";\n        mapAssociation[countTotalId].taxId = \"VAT no\";\n        mapAssociation[countTotalId].businessAddress = \"Street no area code\";\n        mapAssociation[countTotalId].businessCode = \"Sic code\";\n        mapAssociation[countTotalId].adminName = \"Rossi\";\n        mapAssociation[countTotalId].status = \"Valid\";\n        mapAssociation[countTotalId].details = \"Example details\";\n        mapAssociation[countTotalId].durataContratto = \"2028/05/12\";\n        mapAssociation[countTotalId].managementEntity = \"Organo di controllo\";\n        mapAssociation[countTotalId].sharedFund = \"0xDbf3DCb9A72CDa8951694Ca62BA308f42eb035C2\";\n\n        countTotalId = countTotalId + 1;\n        mapAssociation[countTotalId].id = countTotalId;\n        mapAssociation[countTotalId].businessNetworkName = \"BN I.M.G.\";\n        mapAssociation[countTotalId].businessNetworkId = \"1237\";\n        mapAssociation[countTotalId].taxId = \"VAT no\";\n        mapAssociation[countTotalId].businessAddress = \"Street no area code\";\n        mapAssociation[countTotalId].businessCode = \"Sic code\";\n        mapAssociation[countTotalId].adminName = \"Verdi\";\n        mapAssociation[countTotalId].status = \"Valid\";\n        mapAssociation[countTotalId].details = \"Example details\";\n        mapAssociation[countTotalId].durataContratto = \"2035/1/12\";\n        mapAssociation[countTotalId].managementEntity = \"Organo di controllo\";\n        mapAssociation[countTotalId].sharedFund = \"0xa09945E5365D8228B6b30A1b248e302b6d86A88a\";\n        \n        mapAssociation[1].countMember=1; \n        mapAssociation[1].membersLookup[mapAssociation[1].countMember] = bianchi;\n        mapAssociation[1].members[bianchi].addr = bianchi;\n        mapAssociation[1].members[bianchi].role = \"member\";\n        mapAssociation[1].members[bianchi].quota = 20000;\n        mapAssociation[1].members[bianchi].taxId = 9111;\n        mapAssociation[1].members[bianchi].votingRights = \"1500 Class B\";\n        mapAssociation[1].members[bianchi].name = \"Bianchi\";\n        mapAddressAssociation[bianchi].push(1);\n\n        mapAssociation[1].countMember=2;    \n        mapAssociation[1].membersLookup[mapAssociation[1].countMember] = greco;\n        mapAssociation[1].members[greco].addr = greco;\n        mapAssociation[1].members[greco].role = \"admin\";\n        mapAssociation[1].members[greco].quota = 40000;\n        mapAssociation[1].members[greco].taxId = 9112;\n        mapAssociation[1].members[greco].votingRights = \"1000 Class A\";\n        mapAssociation[1].members[greco].name = \"Greco\";\n        mapAddressAssociation[greco].push(1);\n\n        mapAssociation[2].countMember=1;\n        mapAssociation[2].membersLookup[mapAssociation[2].countMember] = esposito;  \n        mapAssociation[2].members[esposito].addr = esposito;\n        mapAssociation[2].members[esposito].role = \"member\";\n        mapAssociation[2].members[esposito].quota = 100000;\n        mapAssociation[2].members[esposito].taxId = 9113;\n        mapAssociation[2].members[esposito].votingRights = \"1000 Class C\";\n        mapAssociation[2].members[esposito].name = \"Esposito\";\n        mapAddressAssociation[esposito].push(2);\n\n        mapAssociation[2].countMember=2; \n        mapAssociation[2].membersLookup[mapAssociation[2].countMember] = greco;  \n        mapAssociation[2].members[greco].addr = greco;\n        mapAssociation[2].members[greco].role = \"admin\";\n        mapAssociation[2].members[greco].quota = 50000;\n        mapAssociation[2].members[greco].taxId = 9114;\n        mapAssociation[2].members[greco].votingRights = \"1000 Class D\";\n        mapAssociation[2].members[greco].name = \"Greco\";\n        mapAddressAssociation[greco].push(2);\n\n        /**\n        mapAssociation[4].countMember=1;\n        mapAssociation[4].membersLookup[mapAssociation[4].countMember] = esposito;  \n        mapAssociation[4].members[esposito].addr = esposito;\n        mapAssociation[4].members[esposito].role = \"member\";\n        mapAssociation[4].members[esposito].quota = 100000;\n        mapAssociation[4].members[esposito].taxId = 9113;\n        mapAssociation[4].members[esposito].votingRights = \"1000 Class C\";\n        mapAssociation[4].members[esposito].name = \"Esposito\";\n        mapAddressAssociation[esposito].push(4);\n\n        mapAssociation[4].countMember=2; \n        mapAssociation[4].membersLookup[mapAssociation[4].countMember] = greco;  \n        mapAssociation[4].members[greco].addr = greco;\n        mapAssociation[4].members[greco].role = \"admin\";\n        mapAssociation[4].members[greco].quota = 50000;\n        mapAssociation[4].members[greco].taxId = 9114;\n        mapAssociation[4].members[greco].votingRights = \"1000 Class D\";\n        mapAssociation[4].members[greco].name = \"Greco\";\n        mapAddressAssociation[greco].push(4);\n\n        mapAssociation[4].countMember=3; \n        mapAssociation[4].membersLookup[mapAssociation[4].countMember] = bianchi;\n        mapAssociation[4].members[bianchi].addr = bianchi;\n        mapAssociation[4].members[bianchi].role = \"member\";\n        mapAssociation[4].members[bianchi].quota = 20000;\n        mapAssociation[4].members[bianchi].taxId = 9111;\n        mapAssociation[4].members[bianchi].votingRights = \"1500 Class B\";\n        mapAssociation[4].members[bianchi].name = \"Bianchi\";\n        mapAddressAssociation[bianchi].push(4);\n        */\n    }\n\n    function getPropertyById(\n        uint _countInput,\n        string memory _propertyInput\n    ) view\n    public returns(string memory) {\n        if(compareStrings(_propertyInput,\"businessNetworkName\")) {\n            return mapAssociation[_countInput].businessNetworkName;\n        }\n        else if(compareStrings(_propertyInput,\"businessNetworkId\")) {\n            return mapAssociation[_countInput].businessNetworkId;\n        }\n        else if(compareStrings(_propertyInput,\"taxId\")) {\n            return mapAssociation[_countInput].taxId;\n        }\n        else if(compareStrings(_propertyInput,\"businessAddress\")) {\n            return mapAssociation[_countInput].businessAddress;\n        }\n        else if(compareStrings(_propertyInput,\"businessCode\")) {\n            return mapAssociation[_countInput].businessCode;\n        }\n        else if(compareStrings(_propertyInput,\"adminName\")) {\n            return mapAssociation[_countInput].adminName;\n        }\n        else if(compareStrings(_propertyInput,\"status\")) {\n            return mapAssociation[_countInput].status;\n        }\n        else if(compareStrings(_propertyInput,\"details\")) {\n            return mapAssociation[_countInput].details;\n        }\n        else if(compareStrings(_propertyInput,\"role\")) {\n            return mapAssociation[_countInput].members[msg.sender].role;\n        }\n        else if(compareStrings(_propertyInput,\"id\")) {\n            return uint2str(mapAssociation[_countInput].id);\n        }\n        else if(compareStrings(_propertyInput,\"durataContratto\")) {\n            return mapAssociation[_countInput].durataContratto;\n        }\n        else if(compareStrings(_propertyInput,\"fondoComune\")) {\n            return uint2str(getFondoComune(mapAssociation[_countInput].businessNetworkName));\n        }\n        else if(compareStrings(_propertyInput,\"managementEntity\")) {\n            return mapAssociation[_countInput].managementEntity;\n        }\n        else if(compareStrings(_propertyInput,\"sharedFund\")) {\n            return mapAssociation[_countInput].sharedFund;\n        }\n    }\n\n    function getMemberPropertyById(\n        uint _associationInput,\n        uint _memberInput,\n        string memory _propertyInput\n    ) view\n    public returns(string memory) {\n        address memberAddr = mapAssociation[_associationInput].membersLookup[_memberInput];\n        if(compareStrings(_propertyInput,\"address\")) {\n            return addressToString(mapAssociation[_associationInput].members[memberAddr].addr);\n        }\n        else if(compareStrings(_propertyInput,\"role\")) {\n            return mapAssociation[_associationInput].members[memberAddr].role;\n        }\n        else if(compareStrings(_propertyInput,\"quota\")) {\n            string memory quota = \n                strConcat(\n                    uint2str(mapAssociation[_associationInput].members[memberAddr].quota),\n                    \" $ \");\n            return\n                strConcat(\n                    quota,\n                    \" ( \",\n                    uint2str( \n                        mapAssociation[_associationInput].members[memberAddr].quota * 100 \n                        / getFondoComune(mapAssociation[_associationInput].businessNetworkName)),\n                    \" % )\"\n                );\n        }\n        else if(compareStrings(_propertyInput,\"votingRights\")) {\n            return mapAssociation[_associationInput].members[memberAddr].votingRights;\n        }\n        else if(compareStrings(_propertyInput,\"name\")) {\n            return mapAssociation[_associationInput].members[memberAddr].name;\n        }\n        else if(compareStrings(_propertyInput,\"taxId\")) {\n            return uint2str(mapAssociation[_associationInput].members[memberAddr].taxId);\n        }\n    }\n    \n    function compareStrings(\n        string memory a, string memory b\n    ) public pure \n    returns (bool) {\n        return (\n            keccak256(abi.encodePacked((a))) == keccak256(abi.encodePacked((b)))\n        );\n    }\n\n    function getCountTotalId() \n    public view \n    returns (uint) {\n        return countTotalId;\n    }\n\n    function getCountMembersByAssociationId(\n        uint _associationInput\n    ) \n    public view \n    returns (uint) {\n        return mapAssociation[_associationInput].countMember;\n    }\n\n    function getMyIds() \n    public view\n    returns (uint8[] memory) {\n        return mapAddressAssociation[msg.sender];\n    }\n\n    function getMembersInformationByBusinessContract(\n        string memory _businessNetworkName) \n    public view\n    returns (string memory allMemoryInfo) {\n        for (\n            uint countAssociationIdx=1; \n            countAssociationIdx<=countTotalId;\n            countAssociationIdx++) \n        {    \n            if(\n                compareStrings(\n                    mapAssociation[countAssociationIdx].businessNetworkName,_businessNetworkName) \n            ) {\n                \n                for (\n                    uint countMemberIdx=1; \n                    countMemberIdx<=mapAssociation[countMemberIdx].countMember;\n                    countMemberIdx++\n                ) {\n                    address _addrMember = mapAssociation[countAssociationIdx].membersLookup[countMemberIdx];\n                    Member storage member = mapAssociation[countAssociationIdx].members[_addrMember];\n                    \n                    string memory _member = \" - Member : \";\n                    string memory _infoAddrMember = strConcat(\"address : \", addressToString(_addrMember));\n                    string memory _quota = strConcat(\", quota : \", uint2str(member.quota));\n                    string memory _role = strConcat(\", role : \", member.role);\n                    \n\n                    string memory memberInfo = \n                        strConcat(\n                            _member,\n                            _infoAddrMember,\n                            _quota,\n                            _role\n                        );\n\n                    allMemoryInfo = \n                        strConcat(\n                            allMemoryInfo, \n                            memberInfo);\n                }\n            }\n        }\n        return allMemoryInfo;\n    }\n\n    function getFondoComune(\n        string memory _businessNetworkName) \n    public view\n    returns (uint _fondoComune) {\n        for (\n            uint countAssociationIdx=1; \n            countAssociationIdx<=countTotalId;\n            countAssociationIdx++) \n        {    \n            if(\n                compareStrings(\n                    mapAssociation[countAssociationIdx].businessNetworkName,_businessNetworkName) \n            ) {\n                \n                for (\n                    uint countMemberIdx=1; \n                    countMemberIdx<=mapAssociation[countMemberIdx].countMember;\n                    countMemberIdx++\n                ) {\n                    address _addrMember = mapAssociation[countAssociationIdx].membersLookup[countMemberIdx];\n                    Member storage member = mapAssociation[countAssociationIdx].members[_addrMember];\n                    _fondoComune = _fondoComune + member.quota;          \n                }\n            }\n        }\n        return _fondoComune;\n    }\n\n    function addMemberToAssociation(\n        address addrMember,\n        string memory role,\n        uint quota,\n        uint taxId,\n        string memory votingRight,\n        string memory name,\n        uint8 countAssociation\n    ) public\n    {\n        mapAssociation[countAssociation].countMember=mapAssociation[countAssociation].countMember+1;    \n        mapAssociation[countAssociation].membersLookup[mapAssociation[countAssociation].countMember] = addrMember;\n        mapAssociation[countAssociation].members[addrMember].addr = addrMember;\n        mapAssociation[countAssociation].members[addrMember].role = role;\n        mapAssociation[countAssociation].members[addrMember].quota = quota;\n        mapAssociation[countAssociation].members[addrMember].taxId = taxId;\n        mapAssociation[countAssociation].members[addrMember].votingRights = votingRight;\n        mapAssociation[countAssociation].members[addrMember].name = name;\n        mapAddressAssociation[addrMember].push(countAssociation);\n    }\n\n    function createAssociation(\n        string memory businessNetworkName,\n        string memory businessNetworkId,\n        string memory taxId,\n        string memory businessAddress,\n        string memory businessCode,\n        string memory adminName,\n        string memory status,\n        string memory details,\n        string memory durataContratto,\n        string memory managementEntity,\n        string memory sharedFund\n    ) public {\n        countTotalId = countTotalId + 1;\n        mapAssociation[countTotalId].id = countTotalId;\n        mapAssociation[countTotalId].businessNetworkName = businessNetworkName;\n        mapAssociation[countTotalId].businessNetworkId = businessNetworkId;\n        mapAssociation[countTotalId].taxId = taxId;\n        mapAssociation[countTotalId].businessAddress = businessAddress;\n        mapAssociation[countTotalId].businessCode = businessCode;\n        mapAssociation[countTotalId].adminName = adminName;\n        mapAssociation[countTotalId].status = status;\n        mapAssociation[countTotalId].details = details;\n        mapAssociation[countTotalId].durataContratto = durataContratto;\n        mapAssociation[countTotalId].managementEntity = managementEntity;\n        mapAssociation[countTotalId].sharedFund = sharedFund;\n    }\n}",
  "sourcePath": "D:/project/BCCProjectDemo/contracts/AssociationStore.sol",
  "compiler": {
    "name": "solc",
    "version": "0.5.5+commit.47a71e8f.Emscripten.clang"
  },
  "schemaVersion": "3.0.22",
  "updatedAt": "2021-10-10T21:22:28.018Z",
  "networkType": "ethereum",
  "devdoc": {
    "methods": {}
  },
  "userdoc": {
    "methods": {}
  }
}