{
  "contractName": "AssociationStore",
  "abi": [
    {
      "constant": true,
      "inputs": [
        {
          "name": "_myid",
          "type": "bytes32"
        },
        {
          "name": "_result",
          "type": "string"
        }
      ],
      "name": "__callback",
      "outputs": [],
      "payable": false,
      "stateMutability": "pure",
      "type": "function"
    },
    {
      "constant": true,
      "inputs": [
        {
          "name": "_myid",
          "type": "bytes32"
        },
        {
          "name": "_result",
          "type": "string"
        },
        {
          "name": "_proof",
          "type": "bytes"
        }
      ],
      "name": "__callback",
      "outputs": [],
      "payable": false,
      "stateMutability": "pure",
      "type": "function"
    },
    {
      "constant": true,
      "inputs": [
        {
          "name": "_address",
          "type": "address"
        }
      ],
      "name": "addressToString",
      "outputs": [
        {
          "name": "_uintAsString",
          "type": "string"
        }
      ],
      "payable": false,
      "stateMutability": "pure",
      "type": "function"
    },
    {
      "constant": true,
      "inputs": [
        {
          "name": "x",
          "type": "uint256"
        }
      ],
      "name": "toBytes",
      "outputs": [
        {
          "name": "b",
          "type": "bytes"
        }
      ],
      "payable": false,
      "stateMutability": "pure",
      "type": "function"
    },
    {
      "constant": true,
      "inputs": [
        {
          "name": "_i",
          "type": "uint256"
        }
      ],
      "name": "uint2str",
      "outputs": [
        {
          "name": "_uintAsString",
          "type": "string"
        }
      ],
      "payable": false,
      "stateMutability": "pure",
      "type": "function"
    },
    {
      "inputs": [],
      "payable": false,
      "stateMutability": "nonpayable",
      "type": "constructor"
    },
    {
      "constant": true,
      "inputs": [
        {
          "name": "_countInput",
          "type": "uint256"
        },
        {
          "name": "_propertyInput",
          "type": "string"
        }
      ],
      "name": "getPropertyById",
      "outputs": [
        {
          "name": "",
          "type": "string"
        }
      ],
      "payable": false,
      "stateMutability": "view",
      "type": "function"
    },
    {
      "constant": true,
      "inputs": [
        {
          "name": "_associationInput",
          "type": "uint256"
        },
        {
          "name": "_memberInput",
          "type": "uint256"
        },
        {
          "name": "_propertyInput",
          "type": "string"
        }
      ],
      "name": "getMemberPropertyById",
      "outputs": [
        {
          "name": "",
          "type": "string"
        }
      ],
      "payable": false,
      "stateMutability": "view",
      "type": "function"
    },
    {
      "constant": true,
      "inputs": [
        {
          "name": "a",
          "type": "string"
        },
        {
          "name": "b",
          "type": "string"
        }
      ],
      "name": "compareStrings",
      "outputs": [
        {
          "name": "",
          "type": "bool"
        }
      ],
      "payable": false,
      "stateMutability": "pure",
      "type": "function"
    },
    {
      "constant": true,
      "inputs": [],
      "name": "getCountTotalId",
      "outputs": [
        {
          "name": "",
          "type": "uint256"
        }
      ],
      "payable": false,
      "stateMutability": "view",
      "type": "function"
    },
    {
      "constant": true,
      "inputs": [
        {
          "name": "_associationInput",
          "type": "uint256"
        }
      ],
      "name": "getCountMembersByAssociationId",
      "outputs": [
        {
          "name": "",
          "type": "uint256"
        }
      ],
      "payable": false,
      "stateMutability": "view",
      "type": "function"
    },
    {
      "constant": true,
      "inputs": [],
      "name": "getMyIds",
      "outputs": [
        {
          "name": "",
          "type": "uint8[]"
        }
      ],
      "payable": false,
      "stateMutability": "view",
      "type": "function"
    },
    {
      "constant": true,
      "inputs": [
        {
          "name": "_businessNetworkName",
          "type": "string"
        }
      ],
      "name": "getMembersInformationByBusinessContract",
      "outputs": [
        {
          "name": "allMemoryInfo",
          "type": "string"
        }
      ],
      "payable": false,
      "stateMutability": "view",
      "type": "function"
    }
  ],
  "bytecode": "0x60806040526000600760006101000a81548160ff021916908360ff1602179055503480156200002d57600080fd5b506000732831b64f4306f87931520ded2f52f122618ed5509050600073a62890aaf033f1268ffea22c52a4b7d6245e78869050600073dcc52fc934d151fbcafa412b29fa8565a6a98b6090506001600760009054906101000a900460ff1601600760006101000a81548160ff021916908360ff160217905550600760009054906101000a900460ff1660ff1660056000600760009054906101000a900460ff1660ff168152602001908152602001600020600001819055506040518060400160405280601281526020017f4e6574776f726b20427573696e6573732041000000000000000000000000000081525060056000600760009054906101000a900460ff1660ff16815260200190815260200160002060010190805190602001906200015892919062001b10565b506040518060400160405280600481526020017f313233340000000000000000000000000000000000000000000000000000000081525060056000600760009054906101000a900460ff1660ff1681526020019081526020016000206002019080519060200190620001cc92919062001b10565b506040518060400160405280600681526020017f564154206e6f000000000000000000000000000000000000000000000000000081525060056000600760009054906101000a900460ff1660ff16815260200190815260200160002060030190805190602001906200024092919062001b10565b506040518060400160405280601381526020017f537472656574206e6f206172656120636f64650000000000000000000000000081525060056000600760009054906101000a900460ff1660ff1681526020019081526020016000206004019080519060200190620002b492919062001b10565b506040518060400160405280600881526020017f53696320636f646500000000000000000000000000000000000000000000000081525060056000600760009054906101000a900460ff1660ff16815260200190815260200160002060050190805190602001906200032892919062001b10565b506040518060600160405280602a8152602001620046ab602a913960056000600760009054906101000a900460ff1660ff16815260200190815260200160002060060190805190602001906200038092919062001b10565b506040518060400160405280600581526020017f56616c696400000000000000000000000000000000000000000000000000000081525060056000600760009054906101000a900460ff1660ff1681526020019081526020016000206007019080519060200190620003f492919062001b10565b506040518060400160405280600f81526020017f4578616d706c652064657461696c73000000000000000000000000000000000081525060056000600760009054906101000a900460ff1660ff16815260200190815260200160002060080190805190602001906200046892919062001b10565b506040518060400160405280600681526020017f3820616e6e69000000000000000000000000000000000000000000000000000081525060056000600760009054906101000a900460ff1660ff168152602001908152602001600020600a019080519060200190620004dc92919062001b10565b50600a60056000600760009054906101000a900460ff1660ff168152602001908152602001600020600b01819055506001600760009054906101000a900460ff1601600760006101000a81548160ff021916908360ff160217905550600760009054906101000a900460ff1660ff1660056000600760009054906101000a900460ff1660ff168152602001908152602001600020600001819055506040518060400160405280601281526020017f4e6574776f726b20427573696e6573732042000000000000000000000000000081525060056000600760009054906101000a900460ff1660ff1681526020019081526020016000206001019080519060200190620005ea92919062001b10565b506040518060400160405280600481526020017f313233350000000000000000000000000000000000000000000000000000000081525060056000600760009054906101000a900460ff1660ff16815260200190815260200160002060020190805190602001906200065e92919062001b10565b506040518060400160405280600881526020017f564154206e6f203200000000000000000000000000000000000000000000000081525060056000600760009054906101000a900460ff1660ff1681526020019081526020016000206003019080519060200190620006d292919062001b10565b506040518060400160405280601581526020017f537472656574206e6f206172656120636f64652032000000000000000000000081525060056000600760009054906101000a900460ff1660ff16815260200190815260200160002060040190805190602001906200074692919062001b10565b506040518060400160405280600a81526020017f53696320636f646520320000000000000000000000000000000000000000000081525060056000600760009054906101000a900460ff1660ff1681526020019081526020016000206005019080519060200190620007ba92919062001b10565b506040518060600160405280602a8152602001620046d5602a913960056000600760009054906101000a900460ff1660ff16815260200190815260200160002060060190805190602001906200081292919062001b10565b506040518060400160405280600581526020017f56616c696400000000000000000000000000000000000000000000000000000081525060056000600760009054906101000a900460ff1660ff16815260200190815260200160002060070190805190602001906200088692919062001b10565b506040518060400160405280601181526020017f4578616d706c652064657461696c73203200000000000000000000000000000081525060056000600760009054906101000a900460ff1660ff1681526020019081526020016000206008019080519060200190620008fa92919062001b10565b506040518060400160405280600681526020017f3520616e6e69000000000000000000000000000000000000000000000000000081525060056000600760009054906101000a900460ff1660ff168152602001908152602001600020600a0190805190602001906200096e92919062001b10565b50600260056000600760009054906101000a900460ff1660ff168152602001908152602001600020600b018190555060016005600060018152602001908152602001600020600c0181905550826005600060018152602001908152602001600020600d0160006005600060018152602001908152602001600020600c0154815260200190815260200160002060006101000a81548173ffffffffffffffffffffffffffffffffffffffff021916908373ffffffffffffffffffffffffffffffffffffffff16021790555082600560006001815260200190815260200160002060090160008573ffffffffffffffffffffffffffffffffffffffff1673ffffffffffffffffffffffffffffffffffffffff16815260200190815260200160002060000160006101000a81548173ffffffffffffffffffffffffffffffffffffffff021916908373ffffffffffffffffffffffffffffffffffffffff1602179055506040518060400160405280600681526020017f6d656d6265720000000000000000000000000000000000000000000000000000815250600560006001815260200190815260200160002060090160008573ffffffffffffffffffffffffffffffffffffffff1673ffffffffffffffffffffffffffffffffffffffff168152602001908152602001600020600101908051906020019062000b7092919062001b10565b5060058060006001815260200190815260200160002060090160008573ffffffffffffffffffffffffffffffffffffffff1673ffffffffffffffffffffffffffffffffffffffff16815260200190815260200160002060020181905550612397600560006001815260200190815260200160002060090160008573ffffffffffffffffffffffffffffffffffffffff1673ffffffffffffffffffffffffffffffffffffffff168152602001908152602001600020600301819055506040518060400160405280600c81526020017f3135303020436c61737320420000000000000000000000000000000000000000815250600560006001815260200190815260200160002060090160008573ffffffffffffffffffffffffffffffffffffffff1673ffffffffffffffffffffffffffffffffffffffff168152602001908152602001600020600401908051906020019062000ccd92919062001b10565b506040518060400160405280600781526020017f4269616e63686900000000000000000000000000000000000000000000000000815250600560006001815260200190815260200160002060090160008573ffffffffffffffffffffffffffffffffffffffff1673ffffffffffffffffffffffffffffffffffffffff168152602001908152602001600020600501908051906020019062000d7092919062001b10565b50600660008473ffffffffffffffffffffffffffffffffffffffff1673ffffffffffffffffffffffffffffffffffffffff1681526020019081526020016000206001908060018154018082558091505090600182039060005260206000209060209182820401919006909192909190916101000a81548160ff021916908360ff1602179055505060026005600060018152602001908152602001600020600c0181905550806005600060018152602001908152602001600020600d0160006005600060018152602001908152602001600020600c0154815260200190815260200160002060006101000a81548173ffffffffffffffffffffffffffffffffffffffff021916908373ffffffffffffffffffffffffffffffffffffffff16021790555080600560006001815260200190815260200160002060090160008373ffffffffffffffffffffffffffffffffffffffff1673ffffffffffffffffffffffffffffffffffffffff16815260200190815260200160002060000160006101000a81548173ffffffffffffffffffffffffffffffffffffffff021916908373ffffffffffffffffffffffffffffffffffffffff1602179055506040518060400160405280600581526020017f61646d696e000000000000000000000000000000000000000000000000000000815250600560006001815260200190815260200160002060090160008373ffffffffffffffffffffffffffffffffffffffff1673ffffffffffffffffffffffffffffffffffffffff168152602001908152602001600020600101908051906020019062000fca92919062001b10565b5060058060006001815260200190815260200160002060090160008373ffffffffffffffffffffffffffffffffffffffff1673ffffffffffffffffffffffffffffffffffffffff16815260200190815260200160002060020181905550612398600560006001815260200190815260200160002060090160008373ffffffffffffffffffffffffffffffffffffffff1673ffffffffffffffffffffffffffffffffffffffff168152602001908152602001600020600301819055506040518060400160405280600c81526020017f3130303020436c61737320410000000000000000000000000000000000000000815250600560006001815260200190815260200160002060090160008373ffffffffffffffffffffffffffffffffffffffff1673ffffffffffffffffffffffffffffffffffffffff16815260200190815260200160002060040190805190602001906200112792919062001b10565b506040518060400160405280600581526020017f477265636f000000000000000000000000000000000000000000000000000000815250600560006001815260200190815260200160002060090160008373ffffffffffffffffffffffffffffffffffffffff1673ffffffffffffffffffffffffffffffffffffffff1681526020019081526020016000206005019080519060200190620011ca92919062001b10565b50600660008273ffffffffffffffffffffffffffffffffffffffff1673ffffffffffffffffffffffffffffffffffffffff1681526020019081526020016000206001908060018154018082558091505090600182039060005260206000209060209182820401919006909192909190916101000a81548160ff021916908360ff1602179055505060016005600060028152602001908152602001600020600c0181905550816005600060028152602001908152602001600020600d0160006005600060028152602001908152602001600020600c0154815260200190815260200160002060006101000a81548173ffffffffffffffffffffffffffffffffffffffff021916908373ffffffffffffffffffffffffffffffffffffffff16021790555081600560006002815260200190815260200160002060090160008473ffffffffffffffffffffffffffffffffffffffff1673ffffffffffffffffffffffffffffffffffffffff16815260200190815260200160002060000160006101000a81548173ffffffffffffffffffffffffffffffffffffffff021916908373ffffffffffffffffffffffffffffffffffffffff1602179055506040518060400160405280600681526020017f6d656d6265720000000000000000000000000000000000000000000000000000815250600560006002815260200190815260200160002060090160008473ffffffffffffffffffffffffffffffffffffffff1673ffffffffffffffffffffffffffffffffffffffff16815260200190815260200160002060010190805190602001906200142492919062001b10565b506001600560006002815260200190815260200160002060090160008473ffffffffffffffffffffffffffffffffffffffff1673ffffffffffffffffffffffffffffffffffffffff16815260200190815260200160002060020181905550612399600560006001815260200190815260200160002060090160008473ffffffffffffffffffffffffffffffffffffffff1673ffffffffffffffffffffffffffffffffffffffff168152602001908152602001600020600301819055506040518060400160405280600c81526020017f3130303020436c61737320430000000000000000000000000000000000000000815250600560006001815260200190815260200160002060090160008473ffffffffffffffffffffffffffffffffffffffff1673ffffffffffffffffffffffffffffffffffffffff16815260200190815260200160002060040190805190602001906200158292919062001b10565b506040518060400160405280600881526020017f4573706f7369746f000000000000000000000000000000000000000000000000815250600560006001815260200190815260200160002060090160008473ffffffffffffffffffffffffffffffffffffffff1673ffffffffffffffffffffffffffffffffffffffff16815260200190815260200160002060050190805190602001906200162592919062001b10565b50600660008373ffffffffffffffffffffffffffffffffffffffff1673ffffffffffffffffffffffffffffffffffffffff1681526020019081526020016000206002908060018154018082558091505090600182039060005260206000209060209182820401919006909192909190916101000a81548160ff021916908360ff1602179055505060026005600060028152602001908152602001600020600c0181905550806005600060028152602001908152602001600020600d0160006005600060028152602001908152602001600020600c0154815260200190815260200160002060006101000a81548173ffffffffffffffffffffffffffffffffffffffff021916908373ffffffffffffffffffffffffffffffffffffffff16021790555080600560006002815260200190815260200160002060090160008373ffffffffffffffffffffffffffffffffffffffff1673ffffffffffffffffffffffffffffffffffffffff16815260200190815260200160002060000160006101000a81548173ffffffffffffffffffffffffffffffffffffffff021916908373ffffffffffffffffffffffffffffffffffffffff1602179055506040518060400160405280600581526020017f61646d696e000000000000000000000000000000000000000000000000000000815250600560006002815260200190815260200160002060090160008373ffffffffffffffffffffffffffffffffffffffff1673ffffffffffffffffffffffffffffffffffffffff16815260200190815260200160002060010190805190602001906200187f92919062001b10565b506001600560006002815260200190815260200160002060090160008373ffffffffffffffffffffffffffffffffffffffff1673ffffffffffffffffffffffffffffffffffffffff1681526020019081526020016000206002018190555061239a600560006001815260200190815260200160002060090160008373ffffffffffffffffffffffffffffffffffffffff1673ffffffffffffffffffffffffffffffffffffffff168152602001908152602001600020600301819055506040518060400160405280600c81526020017f3130303020436c61737320440000000000000000000000000000000000000000815250600560006001815260200190815260200160002060090160008373ffffffffffffffffffffffffffffffffffffffff1673ffffffffffffffffffffffffffffffffffffffff1681526020019081526020016000206004019080519060200190620019dd92919062001b10565b506040518060400160405280600581526020017f477265636f000000000000000000000000000000000000000000000000000000815250600560006001815260200190815260200160002060090160008373ffffffffffffffffffffffffffffffffffffffff1673ffffffffffffffffffffffffffffffffffffffff168152602001908152602001600020600501908051906020019062001a8092919062001b10565b50600660008273ffffffffffffffffffffffffffffffffffffffff1673ffffffffffffffffffffffffffffffffffffffff1681526020019081526020016000206002908060018154018082558091505090600182039060005260206000209060209182820401919006909192909190916101000a81548160ff021916908360ff1602179055505050505062001bbf565b828054600181600116156101000203166002900490600052602060002090601f016020900481019282601f1062001b5357805160ff191683800117855562001b84565b8280016001018555821562001b84579182015b8281111562001b8357825182559160200191906001019062001b66565b5b50905062001b93919062001b97565b5090565b62001bbc91905b8082111562001bb857600081600090555060010162001b9e565b5090565b90565b612adc8062001bcf6000396000f3fe608060405234801561001057600080fd5b50600436106100b45760003560e01c8063775a8f5e11610071578063775a8f5e146105765780638f7714ec1461061d578063bed34bba1461063b578063d07cf924146107a5578063f76f950e146108ed578063f8ca4a3814610994576100b4565b806327dc297e146100b957806333c9ba651461017e57806338bbfa50146102bc57806358284559146104185780635d116c58146104775780635e57966d146104b9575b600080fd5b61017c600480360360408110156100cf57600080fd5b8101908080359060200190929190803590602001906401000000008111156100f657600080fd5b82018360208201111561010857600080fd5b8035906020019184600183028401116401000000008311171561012a57600080fd5b91908080601f016020809104026020016040519081016040528093929190818152602001838380828437600081840152601f19601f820116905080830192505050505050509192919290505050610ac8565b005b6102416004803603604081101561019457600080fd5b8101908080359060200190929190803590602001906401000000008111156101bb57600080fd5b8201836020820111156101cd57600080fd5b803590602001918460018302840111640100000000831117156101ef57600080fd5b91908080601f016020809104026020016040519081016040528093929190818152602001838380828437600081840152601f19601f820116905080830192505050505050509192919290505050610b0b565b6040518080602001828103825283818151815260200191508051906020019080838360005b83811015610281578082015181840152602081019050610266565b50505050905090810190601f1680156102ae5780820380516001836020036101000a031916815260200191505b509250505060405180910390f35b610416600480360360608110156102d257600080fd5b8101908080359060200190929190803590602001906401000000008111156102f957600080fd5b82018360208201111561030b57600080fd5b8035906020019184600183028401116401000000008311171561032d57600080fd5b91908080601f016020809104026020016040519081016040528093929190818152602001838380828437600081840152601f19601f8201169050808301925050505050505091929192908035906020019064010000000081111561039057600080fd5b8201836020820111156103a257600080fd5b803590602001918460018302840111640100000000831117156103c457600080fd5b91908080601f016020809104026020016040519081016040528093929190818152602001838380828437600081840152601f19601f8201169050808301925050505050505091929192905050506115ec565b005b6104206115f1565b6040518080602001828103825283818151815260200191508051906020019060200280838360005b83811015610463578082015181840152602081019050610448565b505050509050019250505060405180910390f35b6104a36004803603602081101561048d57600080fd5b81019080803590602001909291905050506116ac565b6040518082815260200191505060405180910390f35b6104fb600480360360208110156104cf57600080fd5b81019080803573ffffffffffffffffffffffffffffffffffffffff1690602001909291905050506116cc565b6040518080602001828103825283818151815260200191508051906020019080838360005b8381101561053b578082015181840152602081019050610520565b50505050905090810190601f1680156105685780820380516001836020036101000a031916815260200191505b509250505060405180910390f35b6105a26004803603602081101561058c57600080fd5b8101908080359060200190929190505050611963565b6040518080602001828103825283818151815260200191508051906020019080838360005b838110156105e25780820151818401526020810190506105c7565b50505050905090810190601f16801561060f5780820380516001836020036101000a031916815260200191505b509250505060405180910390f35b610625611a14565b6040518082815260200191505060405180910390f35b61078b6004803603604081101561065157600080fd5b810190808035906020019064010000000081111561066e57600080fd5b82018360208201111561068057600080fd5b803590602001918460018302840111640100000000831117156106a257600080fd5b91908080601f016020809104026020016040519081016040528093929190818152602001838380828437600081840152601f19601f8201169050808301925050505050505091929192908035906020019064010000000081111561070557600080fd5b82018360208201111561071757600080fd5b8035906020019184600183028401116401000000008311171561073957600080fd5b91908080601f016020809104026020016040519081016040528093929190818152602001838380828437600081840152601f19601f820116905080830192505050505050509192919290505050611a2e565b604051808215151515815260200191505060405180910390f35b610872600480360360608110156107bb57600080fd5b810190808035906020019092919080359060200190929190803590602001906401000000008111156107ec57600080fd5b8201836020820111156107fe57600080fd5b8035906020019184600183028401116401000000008311171561082057600080fd5b91908080601f016020809104026020016040519081016040528093929190818152602001838380828437600081840152601f19601f820116905080830192505050505050509192919290505050611b21565b6040518080602001828103825283818151815260200191508051906020019080838360005b838110156108b2578082015181840152602081019050610897565b50505050905090810190601f1680156108df5780820380516001836020036101000a031916815260200191505b509250505060405180910390f35b6109196004803603602081101561090357600080fd5b8101908080359060200190929190505050612285565b6040518080602001828103825283818151815260200191508051906020019080838360005b8381101561095957808201518184015260208101905061093e565b50505050905090810190601f1680156109865780820380516001836020036101000a031916815260200191505b509250505060405180910390f35b610a4d600480360360208110156109aa57600080fd5b81019080803590602001906401000000008111156109c757600080fd5b8201836020820111156109d957600080fd5b803590602001918460018302840111640100000000831117156109fb57600080fd5b91908080601f016020809104026020016040519081016040528093929190818152602001838380828437600081840152601f19601f8201169050808301925050505050505091929192905050506123bf565b6040518080602001828103825283818151815260200191508051906020019080838360005b83811015610a8d578082015181840152602081019050610a72565b50505050905090810190601f168015610aba5780820380516001836020036101000a031916815260200191505b509250505060405180910390f35b610b07828260006040519080825280601f01601f191660200182016040528015610b015781602001600182028038833980820191505090505b506115ec565b5050565b6060610b4c826040518060400160405280601381526020017f627573696e6573734e6574776f726b4e616d6500000000000000000000000000815250611a2e565b15610c0757600560008481526020019081526020016000206001018054600181600116156101000203166002900480601f016020809104026020016040519081016040528092919081815260200182805460018160011615610100020316600290048015610bfb5780601f10610bd057610100808354040283529160200191610bfb565b820191906000526020600020905b815481529060010190602001808311610bde57829003601f168201915b505050505090506115e6565b610c46826040518060400160405280601181526020017f627573696e6573734e6574776f726b4964000000000000000000000000000000815250611a2e565b15610d0157600560008481526020019081526020016000206002018054600181600116156101000203166002900480601f016020809104026020016040519081016040528092919081815260200182805460018160011615610100020316600290048015610cf55780601f10610cca57610100808354040283529160200191610cf5565b820191906000526020600020905b815481529060010190602001808311610cd857829003601f168201915b505050505090506115e6565b610d40826040518060400160405280600581526020017f7461784964000000000000000000000000000000000000000000000000000000815250611a2e565b15610dfb57600560008481526020019081526020016000206003018054600181600116156101000203166002900480601f016020809104026020016040519081016040528092919081815260200182805460018160011615610100020316600290048015610def5780601f10610dc457610100808354040283529160200191610def565b820191906000526020600020905b815481529060010190602001808311610dd257829003601f168201915b505050505090506115e6565b610e3a826040518060400160405280600f81526020017f627573696e657373416464726573730000000000000000000000000000000000815250611a2e565b15610ef557600560008481526020019081526020016000206004018054600181600116156101000203166002900480601f016020809104026020016040519081016040528092919081815260200182805460018160011615610100020316600290048015610ee95780601f10610ebe57610100808354040283529160200191610ee9565b820191906000526020600020905b815481529060010190602001808311610ecc57829003601f168201915b505050505090506115e6565b610f34826040518060400160405280600c81526020017f627573696e657373436f64650000000000000000000000000000000000000000815250611a2e565b15610fef57600560008481526020019081526020016000206005018054600181600116156101000203166002900480601f016020809104026020016040519081016040528092919081815260200182805460018160011615610100020316600290048015610fe35780601f10610fb857610100808354040283529160200191610fe3565b820191906000526020600020905b815481529060010190602001808311610fc657829003601f168201915b505050505090506115e6565b61102e826040518060400160405280600981526020017f61646d696e4e616d650000000000000000000000000000000000000000000000815250611a2e565b156110e957600560008481526020019081526020016000206006018054600181600116156101000203166002900480601f0160208091040260200160405190810160405280929190818152602001828054600181600116156101000203166002900480156110dd5780601f106110b2576101008083540402835291602001916110dd565b820191906000526020600020905b8154815290600101906020018083116110c057829003601f168201915b505050505090506115e6565b611128826040518060400160405280600681526020017f7374617475730000000000000000000000000000000000000000000000000000815250611a2e565b156111e357600560008481526020019081526020016000206007018054600181600116156101000203166002900480601f0160208091040260200160405190810160405280929190818152602001828054600181600116156101000203166002900480156111d75780601f106111ac576101008083540402835291602001916111d7565b820191906000526020600020905b8154815290600101906020018083116111ba57829003601f168201915b505050505090506115e6565b611222826040518060400160405280600781526020017f64657461696c7300000000000000000000000000000000000000000000000000815250611a2e565b156112dd57600560008481526020019081526020016000206008018054600181600116156101000203166002900480601f0160208091040260200160405190810160405280929190818152602001828054600181600116156101000203166002900480156112d15780601f106112a6576101008083540402835291602001916112d1565b820191906000526020600020905b8154815290600101906020018083116112b457829003601f168201915b505050505090506115e6565b61131c826040518060400160405280600481526020017f726f6c6500000000000000000000000000000000000000000000000000000000815250611a2e565b15611417576005600084815260200190815260200160002060090160003373ffffffffffffffffffffffffffffffffffffffff1673ffffffffffffffffffffffffffffffffffffffff1681526020019081526020016000206001018054600181600116156101000203166002900480601f01602080910402602001604051908101604052809291908181526020018280546001816001161561010002031660029004801561140b5780601f106113e05761010080835404028352916020019161140b565b820191906000526020600020905b8154815290600101906020018083116113ee57829003601f168201915b505050505090506115e6565b611456826040518060400160405280600281526020017f6964000000000000000000000000000000000000000000000000000000000000815250611a2e565b156114815761147a6005600085815260200190815260200160002060000154612285565b90506115e6565b6114c0826040518060400160405280600f81526020017f647572617461436f6e74726174746f0000000000000000000000000000000000815250611a2e565b1561157b5760056000848152602001908152602001600020600a018054600181600116156101000203166002900480601f01602080910402602001604051908101604052809291908181526020018280546001816001161561010002031660029004801561156f5780601f106115445761010080835404028352916020019161156f565b820191906000526020600020905b81548152906001019060200180831161155257829003601f168201915b505050505090506115e6565b6115ba826040518060400160405280600b81526020017f666f6e646f436f6d756e65000000000000000000000000000000000000000000815250611a2e565b156115e5576115de60056000858152602001908152602001600020600b0154612285565b90506115e6565b5b92915050565b505050565b6060600660003373ffffffffffffffffffffffffffffffffffffffff1673ffffffffffffffffffffffffffffffffffffffff1681526020019081526020016000208054806020026020016040519081016040528092919081815260200182805480156116a257602002820191906000526020600020906000905b82829054906101000a900460ff1660ff168152602001906001019060208260000104928301926001038202915080841161166b5790505b5050505050905090565b600060056000838152602001908152602001600020600c01549050919050565b606060008273ffffffffffffffffffffffffffffffffffffffff1660001b905060606040518060400160405280601081526020017f30313233343536373839616263646566000000000000000000000000000000008152509050606060336040519080825280601f01601f19166020018201604052801561175c5781602001600182028038833980820191505090505b5090507f300000000000000000000000000000000000000000000000000000000000000081600081518110151561178f57fe5b9060200101907effffffffffffffffffffffffffffffffffffffffffffffffffffffffffffff1916908160001a9053507f78000000000000000000000000000000000000000000000000000000000000008160018151811015156117ef57fe5b9060200101907effffffffffffffffffffffffffffffffffffffffffffffffffffffffffffff1916908160001a90535060008090505b60148110156119575782600485600c840160208110151561184257fe5b1a60f81b7effffffffffffffffffffffffffffffffffffffffffffffffffffffffffffff1916901c60f81c60ff1681518110151561187c57fe5b90602001015160f81c60f81b826002830260020181518110151561189c57fe5b9060200101907effffffffffffffffffffffffffffffffffffffffffffffffffffffffffffff1916908160001a90535082600f60f81b85600c84016020811015156118e357fe5b1a60f81b1660f81c60ff168151811015156118fa57fe5b90602001015160f81c60f81b826002830260030181518110151561191a57fe5b9060200101907effffffffffffffffffffffffffffffffffffffffffffffffffffffffffffff1916908160001a9053508080600101915050611825565b50809350505050919050565b606060206040519080825280601f01601f1916602001820160405280156119995781602001600182028038833980820191505090505b50905060008090505b6020811015611a0e5780601f0360080260020a838115156119bf57fe5b0460f81b82828151811015156119d157fe5b9060200101907effffffffffffffffffffffffffffffffffffffffffffffffffffffffffffff1916908160001a90535080806001019150506119a2565b50919050565b6000600760009054906101000a900460ff1660ff16905090565b6000816040516020018082805190602001908083835b602083101515611a695780518252602082019150602081019050602083039250611a44565b6001836020036101000a03801982511681845116808217855250505050505090500191505060405160208183030381529060405280519060200120836040516020018082805190602001908083835b602083101515611add5780518252602082019150602081019050602083039250611ab8565b6001836020036101000a0380198251168184511680821785525050505050509050019150506040516020818303038152906040528051906020012014905092915050565b6060600060056000868152602001908152602001600020600d01600085815260200190815260200160002060009054906101000a900473ffffffffffffffffffffffffffffffffffffffff169050611bae836040518060400160405280600781526020017f6164647265737300000000000000000000000000000000000000000000000000815250611a2e565b15611c3a57611c326005600087815260200190815260200160002060090160008373ffffffffffffffffffffffffffffffffffffffff1673ffffffffffffffffffffffffffffffffffffffff16815260200190815260200160002060000160009054906101000a900473ffffffffffffffffffffffffffffffffffffffff166116cc565b91505061227e565b611c79836040518060400160405280600481526020017f726f6c6500000000000000000000000000000000000000000000000000000000815250611a2e565b15611d75576005600086815260200190815260200160002060090160008273ffffffffffffffffffffffffffffffffffffffff1673ffffffffffffffffffffffffffffffffffffffff1681526020019081526020016000206001018054600181600116156101000203166002900480601f016020809104026020016040519081016040528092919081815260200182805460018160011615610100020316600290048015611d685780601f10611d3d57610100808354040283529160200191611d68565b820191906000526020600020905b815481529060010190602001808311611d4b57829003601f168201915b505050505091505061227e565b611db4836040518060400160405280600581526020017f71756f7461000000000000000000000000000000000000000000000000000000815250611a2e565b15611f5b576060611e58611e1d6005600089815260200190815260200160002060090160008573ffffffffffffffffffffffffffffffffffffffff1673ffffffffffffffffffffffffffffffffffffffff16815260200190815260200160002060020154612285565b6040518060400160405280600381526020017fe282ac0000000000000000000000000000000000000000000000000000000000815250612764565b9050611f52816040518060400160405280600181526020017f2800000000000000000000000000000000000000000000000000000000000000815250611f17600560008b8152602001908152602001600020600b01546064600560008d815260200190815260200160002060090160008973ffffffffffffffffffffffffffffffffffffffff1673ffffffffffffffffffffffffffffffffffffffff1681526020019081526020016000206002015402811515611f1157fe5b04612285565b6040518060400160405280600281526020017f25290000000000000000000000000000000000000000000000000000000000008152506127a8565b9250505061227e565b611f9a836040518060400160405280600c81526020017f766f74696e675269676874730000000000000000000000000000000000000000815250611a2e565b15612096576005600086815260200190815260200160002060090160008273ffffffffffffffffffffffffffffffffffffffff1673ffffffffffffffffffffffffffffffffffffffff1681526020019081526020016000206004018054600181600116156101000203166002900480601f0160208091040260200160405190810160405280929190818152602001828054600181600116156101000203166002900480156120895780601f1061205e57610100808354040283529160200191612089565b820191906000526020600020905b81548152906001019060200180831161206c57829003601f168201915b505050505091505061227e565b6120d5836040518060400160405280600481526020017f6e616d6500000000000000000000000000000000000000000000000000000000815250611a2e565b156121d1576005600086815260200190815260200160002060090160008273ffffffffffffffffffffffffffffffffffffffff1673ffffffffffffffffffffffffffffffffffffffff1681526020019081526020016000206005018054600181600116156101000203166002900480601f0160208091040260200160405190810160405280929190818152602001828054600181600116156101000203166002900480156121c45780601f10612199576101008083540402835291602001916121c4565b820191906000526020600020905b8154815290600101906020018083116121a757829003601f168201915b505050505091505061227e565b612210836040518060400160405280600581526020017f7461784964000000000000000000000000000000000000000000000000000000815250611a2e565b1561227c576122746005600087815260200190815260200160002060090160008373ffffffffffffffffffffffffffffffffffffffff1673ffffffffffffffffffffffffffffffffffffffff16815260200190815260200160002060030154612285565b91505061227e565b505b9392505050565b606060008214156122cd576040518060400160405280600181526020017f300000000000000000000000000000000000000000000000000000000000000081525090506123ba565b600082905060005b6000821415156122fb578080600101915050600a828115156122f357fe5b0491506122d5565b6060816040519080825280601f01601f1916602001820160405280156123305781602001600182028038833980820191505090505b50905060006001830390505b6000861415156123b257600a8681151561235257fe5b0660300160f81b82828060019003935081518110151561236e57fe5b9060200101907effffffffffffffffffffffffffffffffffffffffffffffffffffffffffffff1916908160001a905350600a868115156123aa57fe5b04955061233c565b819450505050505b919050565b60606000600190505b600760009054906101000a900460ff1660ff168111151561275b5761249b600560008381526020019081526020016000206001018054600181600116156101000203166002900480601f0160208091040260200160405190810160405280929190818152602001828054600181600116156101000203166002900480156124905780601f1061246557610100808354040283529160200191612490565b820191906000526020600020905b81548152906001019060200180831161247357829003601f168201915b505050505084611a2e565b1561274e576000600190505b60056000828152602001908152602001600020600c01548111151561274c57600060056000848152602001908152602001600020600d01600083815260200190815260200160002060009054906101000a900473ffffffffffffffffffffffffffffffffffffffff16905060006005600085815260200190815260200160002060090160008373ffffffffffffffffffffffffffffffffffffffff1673ffffffffffffffffffffffffffffffffffffffff168152602001908152602001600020905060606040518060400160405280600c81526020017f202d204d656d626572203a200000000000000000000000000000000000000000815250905060606125ec6040518060400160405280600a81526020017f61646472657373203a20000000000000000000000000000000000000000000008152506125e7866116cc565b612764565b9050606061263b6040518060400160405280600a81526020017f2c2071756f7461203a20000000000000000000000000000000000000000000008152506126368660020154612285565b612764565b9050606061271a6040518060400160405280600981526020017f2c20726f6c65203a200000000000000000000000000000000000000000000000815250866001018054600181600116156101000203166002900480601f0160208091040260200160405190810160405280929190818152602001828054600181600116156101000203166002900480156127105780601f106126e557610100808354040283529160200191612710565b820191906000526020600020905b8154815290600101906020018083116126f357829003601f168201915b5050505050612764565b9050606061272a858585856127a8565b90506127368a82612764565b99505050505050505080806001019150506124a7565b505b80806001019150506123c8565b50809050919050565b60606127a083836040518060200160405280600081525060405180602001604052806000815250604051806020016040528060008152506127d0565b905092915050565b60606127c685858585604051806020016040528060008152506127d0565b9050949350505050565b6060808690506060869050606086905060608690506060869050606081518351855187518951010101016040519080825280601f01601f19166020018201604052801561282c5781602001600182028038833980820191505090505b509050606081905060008090506000809050600090505b88518110156128b757888181518110151561285a57fe5b90602001015160f81c60f81b838380600101945081518110151561287a57fe5b9060200101907effffffffffffffffffffffffffffffffffffffffffffffffffffffffffffff1916908160001a9053508080600101915050612843565b600090505b87518110156129305787818151811015156128d357fe5b90602001015160f81c60f81b83838060010194508151811015156128f357fe5b9060200101907effffffffffffffffffffffffffffffffffffffffffffffffffffffffffffff1916908160001a90535080806001019150506128bc565b600090505b86518110156129a957868181518110151561294c57fe5b90602001015160f81c60f81b838380600101945081518110151561296c57fe5b9060200101907effffffffffffffffffffffffffffffffffffffffffffffffffffffffffffff1916908160001a9053508080600101915050612935565b600090505b8551811015612a225785818151811015156129c557fe5b90602001015160f81c60f81b83838060010194508151811015156129e557fe5b9060200101907effffffffffffffffffffffffffffffffffffffffffffffffffffffffffffff1916908160001a90535080806001019150506129ae565b600090505b8451811015612a9b578481815181101515612a3e57fe5b90602001015160f81c60f81b8383806001019450815181101515612a5e57fe5b9060200101907effffffffffffffffffffffffffffffffffffffffffffffffffffffffffffff1916908160001a9053508080600101915050612a27565b8299505050505050505050509594505050505056fea165627a7a72305820d886a76cdd6bcbac51117ce2bf6e0b19aa28203cfc25fc29126b4877d8e23f060029307833393064334637343143363944393438463662393634353761624266443536316631323631666236307830333045343241396131384130644537323037413137633146623638653834623930373438373863",
  "source": "pragma solidity >= 0.5.0 < 0.6.0;\nimport \"./oraclize.sol\";\n\ncontract AssociationStore  is usingOraclize {\n\n\n    mapping(uint => Association) private mapAssociation;\n    mapping(address => uint8[]) private mapAddressAssociation;\n\n    struct Association {\n        uint id;\n        string businessNetworkName;\n        string businessNetworkId;\n        string taxId;\n        string businessAddress;\n        string businessCode;\n        string adminName;\n        string status;\n        string details;\n        mapping(address => Member) members;\n        string durataContratto;\n        uint fondoComune;\n        uint countMember;\n        mapping(uint => address) membersLookup;\n    }\n\n    struct Member {\n        address addr;\n        string role;\n        uint quota;\n        uint taxId;\n        string votingRights;\n        string name;\n    }\n\n    uint8 private countTotalId = 0;\n\n    constructor(\n    ) public {\n\n        address bianchi=0x2831b64f4306F87931520DEd2f52F122618ED550 ;\n        address esposito=0xA62890aaf033f1268ffea22C52A4b7d6245e7886;\n        address greco=0xdcc52FC934d151fbcafA412b29FA8565A6A98B60;\n\n        countTotalId = countTotalId + 1;\n        mapAssociation[countTotalId].id = countTotalId;\n        mapAssociation[countTotalId].businessNetworkName = \"Network Business A\";\n        mapAssociation[countTotalId].businessNetworkId = \"1234\";\n        mapAssociation[countTotalId].taxId = \"VAT no\";\n        mapAssociation[countTotalId].businessAddress = \"Street no area code\";\n        mapAssociation[countTotalId].businessCode = \"Sic code\";\n        mapAssociation[countTotalId].adminName = \"0x390d3F741C69D948F6b96457abBfD561f1261fb6\";\n        mapAssociation[countTotalId].status = \"Valid\";\n        mapAssociation[countTotalId].details = \"Example details\";\n        mapAssociation[countTotalId].durataContratto = \"8 anni\";\n        mapAssociation[countTotalId].fondoComune = 10;\n\n\n        countTotalId = countTotalId + 1;\n        mapAssociation[countTotalId].id = countTotalId;\n        mapAssociation[countTotalId].businessNetworkName = \"Network Business B\";\n        mapAssociation[countTotalId].businessNetworkId = \"1235\";\n        mapAssociation[countTotalId].taxId = \"VAT no 2\";\n        mapAssociation[countTotalId].businessAddress = \"Street no area code 2\";\n        mapAssociation[countTotalId].businessCode = \"Sic code 2\";\n        mapAssociation[countTotalId].adminName = \"0x030E42A9a18A0dE7207A17c1Fb68e84b9074878c\";\n        mapAssociation[countTotalId].status = \"Valid\";\n        mapAssociation[countTotalId].details = \"Example details 2\";\n        mapAssociation[countTotalId].durataContratto = \"5 anni\";\n        mapAssociation[countTotalId].fondoComune = 2;\n\n\n        \n        mapAssociation[1].countMember=1; \n        mapAssociation[1].membersLookup[mapAssociation[1].countMember] = bianchi;\n        mapAssociation[1].members[bianchi].addr = bianchi;\n        mapAssociation[1].members[bianchi].role = \"member\";\n        mapAssociation[1].members[bianchi].quota = 5;\n        mapAssociation[1].members[bianchi].taxId = 9111;\n        mapAssociation[1].members[bianchi].votingRights = \"1500 Class B\";\n        mapAssociation[1].members[bianchi].name = \"Bianchi\";\n        \n        mapAddressAssociation[bianchi].push(1);\n\n        mapAssociation[1].countMember=2;    \n        mapAssociation[1].membersLookup[mapAssociation[1].countMember] = greco;\n        mapAssociation[1].members[greco].addr = greco;\n        mapAssociation[1].members[greco].role = \"admin\";\n        mapAssociation[1].members[greco].quota = 5;\n        mapAssociation[1].members[greco].taxId = 9112;\n        mapAssociation[1].members[greco].votingRights = \"1000 Class A\";\n        mapAssociation[1].members[greco].name = \"Greco\";\n        mapAddressAssociation[greco].push(1);\n\n        mapAssociation[2].countMember=1;\n        mapAssociation[2].membersLookup[mapAssociation[2].countMember] = esposito;  \n        mapAssociation[2].members[esposito].addr = esposito;\n        mapAssociation[2].members[esposito].role = \"member\";\n        mapAssociation[2].members[esposito].quota = 1;\n        mapAssociation[1].members[esposito].taxId = 9113;\n        mapAssociation[1].members[esposito].votingRights = \"1000 Class C\";\n        mapAssociation[1].members[esposito].name = \"Esposito\";\n        mapAddressAssociation[esposito].push(2);\n\n        mapAssociation[2].countMember=2; \n        mapAssociation[2].membersLookup[mapAssociation[2].countMember] = greco;  \n        mapAssociation[2].members[greco].addr = greco;\n        mapAssociation[2].members[greco].role = \"admin\";\n        mapAssociation[2].members[greco].quota = 1;\n        mapAssociation[1].members[greco].taxId = 9114;\n        mapAssociation[1].members[greco].votingRights = \"1000 Class D\";\n        mapAssociation[1].members[greco].name = \"Greco\";\n        mapAddressAssociation[greco].push(2);\n    }\n\n    function getPropertyById(\n        uint _countInput,\n        string memory _propertyInput\n    ) view\n    public returns(string memory) {\n        if(compareStrings(_propertyInput,\"businessNetworkName\")) {\n            return mapAssociation[_countInput].businessNetworkName;\n        }\n        else if(compareStrings(_propertyInput,\"businessNetworkId\")) {\n            return mapAssociation[_countInput].businessNetworkId;\n        }\n        else if(compareStrings(_propertyInput,\"taxId\")) {\n            return mapAssociation[_countInput].taxId;\n        }\n        else if(compareStrings(_propertyInput,\"businessAddress\")) {\n            return mapAssociation[_countInput].businessAddress;\n        }\n        else if(compareStrings(_propertyInput,\"businessCode\")) {\n            return mapAssociation[_countInput].businessCode;\n        }\n        else if(compareStrings(_propertyInput,\"adminName\")) {\n            return mapAssociation[_countInput].adminName;\n        }\n        else if(compareStrings(_propertyInput,\"status\")) {\n            return mapAssociation[_countInput].status;\n        }\n        else if(compareStrings(_propertyInput,\"details\")) {\n            return mapAssociation[_countInput].details;\n        }\n        else if(compareStrings(_propertyInput,\"role\")) {\n            return mapAssociation[_countInput].members[msg.sender].role;\n        }\n        else if(compareStrings(_propertyInput,\"id\")) {\n            return uint2str(mapAssociation[_countInput].id);\n        }\n        else if(compareStrings(_propertyInput,\"durataContratto\")) {\n            return mapAssociation[_countInput].durataContratto;\n        }\n        else if(compareStrings(_propertyInput,\"fondoComune\")) {\n            return uint2str(mapAssociation[_countInput].fondoComune);\n        }\n    }\n\n    function getMemberPropertyById(\n        uint _associationInput,\n        uint _memberInput,\n        string memory _propertyInput\n    ) view\n    public returns(string memory) {\n        address memberAddr = mapAssociation[_associationInput].membersLookup[_memberInput];\n        if(compareStrings(_propertyInput,\"address\")) {\n            return addressToString(mapAssociation[_associationInput].members[memberAddr].addr);\n        }\n        else if(compareStrings(_propertyInput,\"role\")) {\n            return mapAssociation[_associationInput].members[memberAddr].role;\n        }\n        else if(compareStrings(_propertyInput,\"quota\")) {\n            string memory quota = \n                strConcat(\n                    uint2str(mapAssociation[_associationInput].members[memberAddr].quota),\n                    \"\");\n            return\n                strConcat(\n                    quota,\n                    \"(\",\n                    uint2str( \n                        mapAssociation[_associationInput].members[memberAddr].quota * 100 \n                        / mapAssociation[_associationInput].fondoComune),\n                    \"%)\"\n                );\n        }\n        else if(compareStrings(_propertyInput,\"votingRights\")) {\n            return mapAssociation[_associationInput].members[memberAddr].votingRights;\n        }\n        else if(compareStrings(_propertyInput,\"name\")) {\n            return mapAssociation[_associationInput].members[memberAddr].name;\n        }\n        else if(compareStrings(_propertyInput,\"taxId\")) {\n            return uint2str(mapAssociation[_associationInput].members[memberAddr].taxId);\n        }\n    }\n    \n    function compareStrings(\n        string memory a, string memory b\n    ) public pure \n    returns (bool) {\n        return (\n            keccak256(abi.encodePacked((a))) == keccak256(abi.encodePacked((b)))\n        );\n    }\n\n    function getCountTotalId() \n    public view \n    returns (uint) {\n        return countTotalId;\n    }\n\n    function getCountMembersByAssociationId(\n        uint _associationInput\n    ) \n    public view \n    returns (uint) {\n        return mapAssociation[_associationInput].countMember;\n    }\n\n    function getMyIds() \n    public view\n    returns (uint8[] memory) {\n        return mapAddressAssociation[msg.sender];\n    }\n\n    function getMembersInformationByBusinessContract(\n        string memory _businessNetworkName) \n    public view\n    returns (string memory allMemoryInfo) {\n        for (\n            uint countAssociationIdx=1; \n            countAssociationIdx<=countTotalId;\n            countAssociationIdx++) \n        {    \n            if(\n                compareStrings(\n                    mapAssociation[countAssociationIdx].businessNetworkName,_businessNetworkName) \n            ) {\n                \n                for (\n                    uint countMemberIdx=1; \n                    countMemberIdx<=mapAssociation[countMemberIdx].countMember;\n                    countMemberIdx++\n                ) {\n                    address _addrMember = mapAssociation[countAssociationIdx].membersLookup[countMemberIdx];\n                    Member storage member = mapAssociation[countAssociationIdx].members[_addrMember];\n                    \n                    string memory _member = \" - Member : \";\n                    string memory _infoAddrMember = strConcat(\"address : \", addressToString(_addrMember));\n                    string memory _quota = strConcat(\", quota : \", uint2str(member.quota));\n                    string memory _role = strConcat(\", role : \", member.role);\n                    \n\n                    string memory memberInfo = \n                        strConcat(\n                            _member,\n                            _infoAddrMember,\n                            _quota,\n                            _role\n                        );\n\n                    allMemoryInfo = \n                        strConcat(\n                            allMemoryInfo, \n                            memberInfo);\n                   \n                }\n            }\n        }\n\n        return allMemoryInfo;\n    }\n}",
  "sourcePath": "D:/project/BCCProjectDemo/contracts/AssociationStore.sol",
  "compiler": {
    "name": "solc",
    "version": "0.5.5+commit.47a71e8f.Emscripten.clang"
  },
  "schemaVersion": "3.0.22",
  "updatedAt": "2021-10-02T21:29:18.087Z",
  "networkType": "ethereum",
  "devdoc": {
    "methods": {}
  },
  "userdoc": {
    "methods": {}
  }
}