{
  "contractName": "AssociationStore",
  "abi": [
    {
      "constant": true,
      "inputs": [
        {
          "name": "_myid",
          "type": "bytes32"
        },
        {
          "name": "_result",
          "type": "string"
        }
      ],
      "name": "__callback",
      "outputs": [],
      "payable": false,
      "stateMutability": "pure",
      "type": "function"
    },
    {
      "constant": true,
      "inputs": [
        {
          "name": "_myid",
          "type": "bytes32"
        },
        {
          "name": "_result",
          "type": "string"
        },
        {
          "name": "_proof",
          "type": "bytes"
        }
      ],
      "name": "__callback",
      "outputs": [],
      "payable": false,
      "stateMutability": "pure",
      "type": "function"
    },
    {
      "constant": true,
      "inputs": [
        {
          "name": "_address",
          "type": "address"
        }
      ],
      "name": "addressToString",
      "outputs": [
        {
          "name": "_uintAsString",
          "type": "string"
        }
      ],
      "payable": false,
      "stateMutability": "pure",
      "type": "function"
    },
    {
      "constant": true,
      "inputs": [
        {
          "name": "x",
          "type": "uint256"
        }
      ],
      "name": "toBytes",
      "outputs": [
        {
          "name": "b",
          "type": "bytes"
        }
      ],
      "payable": false,
      "stateMutability": "pure",
      "type": "function"
    },
    {
      "constant": true,
      "inputs": [
        {
          "name": "_i",
          "type": "uint256"
        }
      ],
      "name": "uint2str",
      "outputs": [
        {
          "name": "_uintAsString",
          "type": "string"
        }
      ],
      "payable": false,
      "stateMutability": "pure",
      "type": "function"
    },
    {
      "inputs": [],
      "payable": false,
      "stateMutability": "nonpayable",
      "type": "constructor"
    },
    {
      "constant": true,
      "inputs": [
        {
          "name": "_countInput",
          "type": "uint256"
        },
        {
          "name": "_propertyInput",
          "type": "string"
        }
      ],
      "name": "getPropertyById",
      "outputs": [
        {
          "name": "",
          "type": "string"
        }
      ],
      "payable": false,
      "stateMutability": "view",
      "type": "function"
    },
    {
      "constant": true,
      "inputs": [
        {
          "name": "a",
          "type": "string"
        },
        {
          "name": "b",
          "type": "string"
        }
      ],
      "name": "compareStrings",
      "outputs": [
        {
          "name": "",
          "type": "bool"
        }
      ],
      "payable": false,
      "stateMutability": "pure",
      "type": "function"
    },
    {
      "constant": true,
      "inputs": [],
      "name": "getCountTotalId",
      "outputs": [
        {
          "name": "",
          "type": "uint256"
        }
      ],
      "payable": false,
      "stateMutability": "view",
      "type": "function"
    },
    {
      "constant": true,
      "inputs": [],
      "name": "getMyIds",
      "outputs": [
        {
          "name": "",
          "type": "uint8[]"
        }
      ],
      "payable": false,
      "stateMutability": "view",
      "type": "function"
    }
  ],
  "bytecode": "0x60806040526000600760006101000a81548160ff021916908360ff1602179055503480156200002d57600080fd5b506001600760009054906101000a900460ff1601600760006101000a81548160ff021916908360ff160217905550600760009054906101000a900460ff1660ff1660056000600760009054906101000a900460ff1660ff168152602001908152602001600020600001819055506040518060400160405280601281526020017f4e6574776f726b20427573696e6573732041000000000000000000000000000081525060056000600760009054906101000a900460ff1660ff16815260200190815260200160002060010190805190602001906200010d92919062001e2f565b506040518060400160405280600481526020017f313233340000000000000000000000000000000000000000000000000000000081525060056000600760009054906101000a900460ff1660ff16815260200190815260200160002060020190805190602001906200018192919062001e2f565b506040518060400160405280600681526020017f564154206e6f000000000000000000000000000000000000000000000000000081525060056000600760009054906101000a900460ff1660ff1681526020019081526020016000206003019080519060200190620001f592919062001e2f565b506040518060400160405280601381526020017f537472656574206e6f206172656120636f64650000000000000000000000000081525060056000600760009054906101000a900460ff1660ff16815260200190815260200160002060040190805190602001906200026992919062001e2f565b506040518060400160405280600881526020017f53696320636f646500000000000000000000000000000000000000000000000081525060056000600760009054906101000a900460ff1660ff1681526020019081526020016000206005019080519060200190620002dd92919062001e2f565b506040518060600160405280602a815260200162003712602a913960056000600760009054906101000a900460ff1660ff16815260200190815260200160002060060190805190602001906200033592919062001e2f565b506040518060400160405280600581526020017f56616c696400000000000000000000000000000000000000000000000000000081525060056000600760009054906101000a900460ff1660ff1681526020019081526020016000206007019080519060200190620003a992919062001e2f565b506040518060400160405280600f81526020017f4578616d706c652064657461696c73000000000000000000000000000000000081525060056000600760009054906101000a900460ff1660ff16815260200190815260200160002060080190805190602001906200041d92919062001e2f565b506001600760009054906101000a900460ff1601600760006101000a81548160ff021916908360ff160217905550600760009054906101000a900460ff1660ff1660056000600760009054906101000a900460ff1660ff168152602001908152602001600020600001819055506040518060400160405280601281526020017f4e6574776f726b20427573696e6573732042000000000000000000000000000081525060056000600760009054906101000a900460ff1660ff1681526020019081526020016000206001019080519060200190620004fd92919062001e2f565b506040518060400160405280600481526020017f313233350000000000000000000000000000000000000000000000000000000081525060056000600760009054906101000a900460ff1660ff16815260200190815260200160002060020190805190602001906200057192919062001e2f565b506040518060400160405280600881526020017f564154206e6f203200000000000000000000000000000000000000000000000081525060056000600760009054906101000a900460ff1660ff1681526020019081526020016000206003019080519060200190620005e592919062001e2f565b506040518060400160405280601581526020017f537472656574206e6f206172656120636f64652032000000000000000000000081525060056000600760009054906101000a900460ff1660ff16815260200190815260200160002060040190805190602001906200065992919062001e2f565b506040518060400160405280600a81526020017f53696320636f646520320000000000000000000000000000000000000000000081525060056000600760009054906101000a900460ff1660ff1681526020019081526020016000206005019080519060200190620006cd92919062001e2f565b506040518060600160405280602a81526020016200373c602a913960056000600760009054906101000a900460ff1660ff16815260200190815260200160002060060190805190602001906200072592919062001e2f565b506040518060400160405280600581526020017f56616c696400000000000000000000000000000000000000000000000000000081525060056000600760009054906101000a900460ff1660ff16815260200190815260200160002060070190805190602001906200079992919062001e2f565b506040518060400160405280601181526020017f4578616d706c652064657461696c73203200000000000000000000000000000081525060056000600760009054906101000a900460ff1660ff16815260200190815260200160002060080190805190602001906200080d92919062001e2f565b506001600760009054906101000a900460ff1601600760006101000a81548160ff021916908360ff160217905550600760009054906101000a900460ff1660ff1660056000600760009054906101000a900460ff1660ff168152602001908152602001600020600001819055506040518060400160405280601281526020017f4e6574776f726b20427573696e6573732043000000000000000000000000000081525060056000600760009054906101000a900460ff1660ff1681526020019081526020016000206001019080519060200190620008ed92919062001e2f565b506040518060400160405280600481526020017f313233360000000000000000000000000000000000000000000000000000000081525060056000600760009054906101000a900460ff1660ff16815260200190815260200160002060020190805190602001906200096192919062001e2f565b506040518060400160405280600881526020017f564154206e6f203300000000000000000000000000000000000000000000000081525060056000600760009054906101000a900460ff1660ff1681526020019081526020016000206003019080519060200190620009d592919062001e2f565b506040518060400160405280601581526020017f537472656574206e6f206172656120636f64652033000000000000000000000081525060056000600760009054906101000a900460ff1660ff168152602001908152602001600020600401908051906020019062000a4992919062001e2f565b506040518060400160405280600a81526020017f53696320636f646520330000000000000000000000000000000000000000000081525060056000600760009054906101000a900460ff1660ff168152602001908152602001600020600501908051906020019062000abd92919062001e2f565b506040518060600160405280602a815260200162003766602a913960056000600760009054906101000a900460ff1660ff168152602001908152602001600020600601908051906020019062000b1592919062001e2f565b506040518060400160405280600581526020017f56616c696400000000000000000000000000000000000000000000000000000081525060056000600760009054906101000a900460ff1660ff168152602001908152602001600020600701908051906020019062000b8992919062001e2f565b506040518060400160405280601181526020017f4578616d706c652064657461696c73203300000000000000000000000000000081525060056000600760009054906101000a900460ff1660ff168152602001908152602001600020600801908051906020019062000bfd92919062001e2f565b506001600760009054906101000a900460ff1601600760006101000a81548160ff021916908360ff160217905550600760009054906101000a900460ff1660ff1660056000600760009054906101000a900460ff1660ff168152602001908152602001600020600001819055506040518060400160405280601281526020017f4e6574776f726b20427573696e6573732044000000000000000000000000000081525060056000600760009054906101000a900460ff1660ff168152602001908152602001600020600101908051906020019062000cdd92919062001e2f565b506040518060400160405280600481526020017f313233370000000000000000000000000000000000000000000000000000000081525060056000600760009054906101000a900460ff1660ff168152602001908152602001600020600201908051906020019062000d5192919062001e2f565b506040518060400160405280600881526020017f564154206e6f203400000000000000000000000000000000000000000000000081525060056000600760009054906101000a900460ff1660ff168152602001908152602001600020600301908051906020019062000dc592919062001e2f565b506040518060400160405280601581526020017f537472656574206e6f206172656120636f64652034000000000000000000000081525060056000600760009054906101000a900460ff1660ff168152602001908152602001600020600401908051906020019062000e3992919062001e2f565b506040518060400160405280600a81526020017f53696320636f646520340000000000000000000000000000000000000000000081525060056000600760009054906101000a900460ff1660ff168152602001908152602001600020600501908051906020019062000ead92919062001e2f565b506040518060600160405280602a815260200162003712602a913960056000600760009054906101000a900460ff1660ff168152602001908152602001600020600601908051906020019062000f0592919062001e2f565b506040518060400160405280600581526020017f56616c696400000000000000000000000000000000000000000000000000000081525060056000600760009054906101000a900460ff1660ff168152602001908152602001600020600701908051906020019062000f7992919062001e2f565b506040518060400160405280601481526020017f4578616d706c652064657461696c732034202d2000000000000000000000000081525060056000600760009054906101000a900460ff1660ff168152602001908152602001600020600801908051906020019062000fed92919062001e2f565b506001600760009054906101000a900460ff1601600760006101000a81548160ff021916908360ff160217905550600760009054906101000a900460ff1660ff1660056000600760009054906101000a900460ff1660ff168152602001908152602001600020600001819055506040518060400160405280601281526020017f4e6574776f726b20427573696e6573732045000000000000000000000000000081525060056000600760009054906101000a900460ff1660ff1681526020019081526020016000206001019080519060200190620010cd92919062001e2f565b506040518060400160405280600481526020017f313233380000000000000000000000000000000000000000000000000000000081525060056000600760009054906101000a900460ff1660ff16815260200190815260200160002060020190805190602001906200114192919062001e2f565b506040518060400160405280600881526020017f564154206e6f203500000000000000000000000000000000000000000000000081525060056000600760009054906101000a900460ff1660ff1681526020019081526020016000206003019080519060200190620011b592919062001e2f565b506040518060400160405280601581526020017f537472656574206e6f206172656120636f64652035000000000000000000000081525060056000600760009054906101000a900460ff1660ff16815260200190815260200160002060040190805190602001906200122992919062001e2f565b506040518060400160405280600a81526020017f53696320636f646520350000000000000000000000000000000000000000000081525060056000600760009054906101000a900460ff1660ff16815260200190815260200160002060050190805190602001906200129d92919062001e2f565b506040518060600160405280602a81526020016200373c602a913960056000600760009054906101000a900460ff1660ff1681526020019081526020016000206006019080519060200190620012f592919062001e2f565b506040518060400160405280600581526020017f56616c696400000000000000000000000000000000000000000000000000000081525060056000600760009054906101000a900460ff1660ff16815260200190815260200160002060070190805190602001906200136992919062001e2f565b506040518060400160405280601181526020017f4578616d706c652064657461696c73203500000000000000000000000000000081525060056000600760009054906101000a900460ff1660ff1681526020019081526020016000206008019080519060200190620013dd92919062001e2f565b506006600073030e42a9a18a0de7207a17c1fb68e84b9074878c73ffffffffffffffffffffffffffffffffffffffff1673ffffffffffffffffffffffffffffffffffffffff1681526020019081526020016000206001908060018154018082558091505090600182039060005260206000209060209182820401919006909192909190916101000a81548160ff021916908360ff160217905550506006600073030e42a9a18a0de7207a17c1fb68e84b9074878c73ffffffffffffffffffffffffffffffffffffffff1673ffffffffffffffffffffffffffffffffffffffff1681526020019081526020016000206002908060018154018082558091505090600182039060005260206000209060209182820401919006909192909190916101000a81548160ff021916908360ff160217905550506006600073030e42a9a18a0de7207a17c1fb68e84b9074878c73ffffffffffffffffffffffffffffffffffffffff1673ffffffffffffffffffffffffffffffffffffffff1681526020019081526020016000206005908060018154018082558091505090600182039060005260206000209060209182820401919006909192909190916101000a81548160ff021916908360ff1602179055505073030e42a9a18a0de7207a17c1fb68e84b9074878c6005600060018152602001908152602001600020600901600073030e42a9a18a0de7207a17c1fb68e84b9074878c73ffffffffffffffffffffffffffffffffffffffff1673ffffffffffffffffffffffffffffffffffffffff16815260200190815260200160002060000160006101000a81548173ffffffffffffffffffffffffffffffffffffffff021916908373ffffffffffffffffffffffffffffffffffffffff1602179055506040518060400160405280600681526020017f6d656d62657200000000000000000000000000000000000000000000000000008152506005600060018152602001908152602001600020600901600073030e42a9a18a0de7207a17c1fb68e84b9074878c73ffffffffffffffffffffffffffffffffffffffff1673ffffffffffffffffffffffffffffffffffffffff16815260200190815260200160002060010190805190602001906200172092919062001e2f565b5073030e42a9a18a0de7207a17c1fb68e84b9074878c6005600060028152602001908152602001600020600901600073030e42a9a18a0de7207a17c1fb68e84b9074878c73ffffffffffffffffffffffffffffffffffffffff1673ffffffffffffffffffffffffffffffffffffffff16815260200190815260200160002060000160006101000a81548173ffffffffffffffffffffffffffffffffffffffff021916908373ffffffffffffffffffffffffffffffffffffffff1602179055506040518060400160405280600581526020017f61646d696e0000000000000000000000000000000000000000000000000000008152506005600060028152602001908152602001600020600901600073030e42a9a18a0de7207a17c1fb68e84b9074878c73ffffffffffffffffffffffffffffffffffffffff1673ffffffffffffffffffffffffffffffffffffffff16815260200190815260200160002060010190805190602001906200189592919062001e2f565b5073030e42a9a18a0de7207a17c1fb68e84b9074878c6005600060058152602001908152602001600020600901600073030e42a9a18a0de7207a17c1fb68e84b9074878c73ffffffffffffffffffffffffffffffffffffffff1673ffffffffffffffffffffffffffffffffffffffff16815260200190815260200160002060000160006101000a81548173ffffffffffffffffffffffffffffffffffffffff021916908373ffffffffffffffffffffffffffffffffffffffff1602179055506040518060400160405280600581526020017f61646d696e0000000000000000000000000000000000000000000000000000008152506005600060058152602001908152602001600020600901600073030e42a9a18a0de7207a17c1fb68e84b9074878c73ffffffffffffffffffffffffffffffffffffffff1673ffffffffffffffffffffffffffffffffffffffff168152602001908152602001600020600101908051906020019062001a0a92919062001e2f565b5060066000735618972c79dd7495710e01833d5d615c3825d84173ffffffffffffffffffffffffffffffffffffffff1673ffffffffffffffffffffffffffffffffffffffff1681526020019081526020016000206003908060018154018082558091505090600182039060005260206000209060209182820401919006909192909190916101000a81548160ff021916908360ff1602179055505060066000735618972c79dd7495710e01833d5d615c3825d84173ffffffffffffffffffffffffffffffffffffffff1673ffffffffffffffffffffffffffffffffffffffff1681526020019081526020016000206005908060018154018082558091505090600182039060005260206000209060209182820401919006909192909190916101000a81548160ff021916908360ff16021790555050735618972c79dd7495710e01833d5d615c3825d84160056000600381526020019081526020016000206009016000735618972c79dd7495710e01833d5d615c3825d84173ffffffffffffffffffffffffffffffffffffffff1673ffffffffffffffffffffffffffffffffffffffff16815260200190815260200160002060000160006101000a81548173ffffffffffffffffffffffffffffffffffffffff021916908373ffffffffffffffffffffffffffffffffffffffff1602179055506040518060400160405280600581526020017f61646d696e00000000000000000000000000000000000000000000000000000081525060056000600381526020019081526020016000206009016000735618972c79dd7495710e01833d5d615c3825d84173ffffffffffffffffffffffffffffffffffffffff1673ffffffffffffffffffffffffffffffffffffffff168152602001908152602001600020600101908051906020019062001cb392919062001e2f565b50735618972c79dd7495710e01833d5d615c3825d84160056000600581526020019081526020016000206009016000735618972c79dd7495710e01833d5d615c3825d84173ffffffffffffffffffffffffffffffffffffffff1673ffffffffffffffffffffffffffffffffffffffff16815260200190815260200160002060000160006101000a81548173ffffffffffffffffffffffffffffffffffffffff021916908373ffffffffffffffffffffffffffffffffffffffff1602179055506040518060400160405280600681526020017f6d656d626572000000000000000000000000000000000000000000000000000081525060056000600581526020019081526020016000206009016000735618972c79dd7495710e01833d5d615c3825d84173ffffffffffffffffffffffffffffffffffffffff1673ffffffffffffffffffffffffffffffffffffffff168152602001908152602001600020600101908051906020019062001e2892919062001e2f565b5062001ede565b828054600181600116156101000203166002900490600052602060002090601f016020900481019282601f1062001e7257805160ff191683800117855562001ea3565b8280016001018555821562001ea3579182015b8281111562001ea257825182559160200191906001019062001e85565b5b50905062001eb2919062001eb6565b5090565b62001edb91905b8082111562001ed757600081600090555060010162001ebd565b5090565b90565b6118248062001eee6000396000f3fe608060405234801561001057600080fd5b50600436106100935760003560e01c80635e57966d116100665780635e57966d14610456578063775a8f5e146105135780638f7714ec146105ba578063bed34bba146105d8578063f76f950e1461074257610093565b806327dc297e1461009857806333c9ba651461015d57806338bbfa501461029b57806358284559146103f7575b600080fd5b61015b600480360360408110156100ae57600080fd5b8101908080359060200190929190803590602001906401000000008111156100d557600080fd5b8201836020820111156100e757600080fd5b8035906020019184600183028401116401000000008311171561010957600080fd5b91908080601f016020809104026020016040519081016040528093929190818152602001838380828437600081840152601f19601f8201169050808301925050505050505091929192905050506107e9565b005b6102206004803603604081101561017357600080fd5b81019080803590602001909291908035906020019064010000000081111561019a57600080fd5b8201836020820111156101ac57600080fd5b803590602001918460018302840111640100000000831117156101ce57600080fd5b91908080601f016020809104026020016040519081016040528093929190818152602001838380828437600081840152601f19601f82011690508083019250505050505050919291929050505061082c565b6040518080602001828103825283818151815260200191508051906020019080838360005b83811015610260578082015181840152602081019050610245565b50505050905090810190601f16801561028d5780820380516001836020036101000a031916815260200191505b509250505060405180910390f35b6103f5600480360360608110156102b157600080fd5b8101908080359060200190929190803590602001906401000000008111156102d857600080fd5b8201836020820111156102ea57600080fd5b8035906020019184600183028401116401000000008311171561030c57600080fd5b91908080601f016020809104026020016040519081016040528093929190818152602001838380828437600081840152601f19601f8201169050808301925050505050505091929192908035906020019064010000000081111561036f57600080fd5b82018360208201111561038157600080fd5b803590602001918460018302840111640100000000831117156103a357600080fd5b91908080601f016020809104026020016040519081016040528093929190818152602001838380828437600081840152601f19601f8201169050808301925050505050505091929192905050506111a9565b005b6103ff6111ae565b6040518080602001828103825283818151815260200191508051906020019060200280838360005b83811015610442578082015181840152602081019050610427565b505050509050019250505060405180910390f35b6104986004803603602081101561046c57600080fd5b81019080803573ffffffffffffffffffffffffffffffffffffffff169060200190929190505050611269565b6040518080602001828103825283818151815260200191508051906020019080838360005b838110156104d85780820151818401526020810190506104bd565b50505050905090810190601f1680156105055780820380516001836020036101000a031916815260200191505b509250505060405180910390f35b61053f6004803603602081101561052957600080fd5b8101908080359060200190929190505050611500565b6040518080602001828103825283818151815260200191508051906020019080838360005b8381101561057f578082015181840152602081019050610564565b50505050905090810190601f1680156105ac5780820380516001836020036101000a031916815260200191505b509250505060405180910390f35b6105c26115b1565b6040518082815260200191505060405180910390f35b610728600480360360408110156105ee57600080fd5b810190808035906020019064010000000081111561060b57600080fd5b82018360208201111561061d57600080fd5b8035906020019184600183028401116401000000008311171561063f57600080fd5b91908080601f016020809104026020016040519081016040528093929190818152602001838380828437600081840152601f19601f820116905080830192505050505050509192919290803590602001906401000000008111156106a257600080fd5b8201836020820111156106b457600080fd5b803590602001918460018302840111640100000000831117156106d657600080fd5b91908080601f016020809104026020016040519081016040528093929190818152602001838380828437600081840152601f19601f8201169050808301925050505050505091929192905050506115cb565b604051808215151515815260200191505060405180910390f35b61076e6004803603602081101561075857600080fd5b81019080803590602001909291905050506116be565b6040518080602001828103825283818151815260200191508051906020019080838360005b838110156107ae578082015181840152602081019050610793565b50505050905090810190601f1680156107db5780820380516001836020036101000a031916815260200191505b509250505060405180910390f35b610828828260006040519080825280601f01601f1916602001820160405280156108225781602001600182028038833980820191505090505b506111a9565b5050565b606061086d826040518060400160405280601381526020017f627573696e6573734e6574776f726b4e616d65000000000000000000000000008152506115cb565b1561092857600560008481526020019081526020016000206001018054600181600116156101000203166002900480601f01602080910402602001604051908101604052809291908181526020018280546001816001161561010002031660029004801561091c5780601f106108f15761010080835404028352916020019161091c565b820191906000526020600020905b8154815290600101906020018083116108ff57829003601f168201915b505050505090506111a3565b610967826040518060400160405280601181526020017f627573696e6573734e6574776f726b49640000000000000000000000000000008152506115cb565b15610a2257600560008481526020019081526020016000206002018054600181600116156101000203166002900480601f016020809104026020016040519081016040528092919081815260200182805460018160011615610100020316600290048015610a165780601f106109eb57610100808354040283529160200191610a16565b820191906000526020600020905b8154815290600101906020018083116109f957829003601f168201915b505050505090506111a3565b610a61826040518060400160405280600581526020017f74617849640000000000000000000000000000000000000000000000000000008152506115cb565b15610b1c57600560008481526020019081526020016000206003018054600181600116156101000203166002900480601f016020809104026020016040519081016040528092919081815260200182805460018160011615610100020316600290048015610b105780601f10610ae557610100808354040283529160200191610b10565b820191906000526020600020905b815481529060010190602001808311610af357829003601f168201915b505050505090506111a3565b610b5b826040518060400160405280600f81526020017f627573696e6573734164647265737300000000000000000000000000000000008152506115cb565b15610c1657600560008481526020019081526020016000206004018054600181600116156101000203166002900480601f016020809104026020016040519081016040528092919081815260200182805460018160011615610100020316600290048015610c0a5780601f10610bdf57610100808354040283529160200191610c0a565b820191906000526020600020905b815481529060010190602001808311610bed57829003601f168201915b505050505090506111a3565b610c55826040518060400160405280600c81526020017f627573696e657373436f646500000000000000000000000000000000000000008152506115cb565b15610d1057600560008481526020019081526020016000206005018054600181600116156101000203166002900480601f016020809104026020016040519081016040528092919081815260200182805460018160011615610100020316600290048015610d045780601f10610cd957610100808354040283529160200191610d04565b820191906000526020600020905b815481529060010190602001808311610ce757829003601f168201915b505050505090506111a3565b610d4f826040518060400160405280600981526020017f61646d696e4e616d6500000000000000000000000000000000000000000000008152506115cb565b15610e0a57600560008481526020019081526020016000206006018054600181600116156101000203166002900480601f016020809104026020016040519081016040528092919081815260200182805460018160011615610100020316600290048015610dfe5780601f10610dd357610100808354040283529160200191610dfe565b820191906000526020600020905b815481529060010190602001808311610de157829003601f168201915b505050505090506111a3565b610e49826040518060400160405280600681526020017f73746174757300000000000000000000000000000000000000000000000000008152506115cb565b15610f0457600560008481526020019081526020016000206007018054600181600116156101000203166002900480601f016020809104026020016040519081016040528092919081815260200182805460018160011615610100020316600290048015610ef85780601f10610ecd57610100808354040283529160200191610ef8565b820191906000526020600020905b815481529060010190602001808311610edb57829003601f168201915b505050505090506111a3565b610f43826040518060400160405280600781526020017f64657461696c73000000000000000000000000000000000000000000000000008152506115cb565b15610ffe57600560008481526020019081526020016000206008018054600181600116156101000203166002900480601f016020809104026020016040519081016040528092919081815260200182805460018160011615610100020316600290048015610ff25780601f10610fc757610100808354040283529160200191610ff2565b820191906000526020600020905b815481529060010190602001808311610fd557829003601f168201915b505050505090506111a3565b61103d826040518060400160405280600481526020017f726f6c65000000000000000000000000000000000000000000000000000000008152506115cb565b15611138576005600084815260200190815260200160002060090160003373ffffffffffffffffffffffffffffffffffffffff1673ffffffffffffffffffffffffffffffffffffffff1681526020019081526020016000206001018054600181600116156101000203166002900480601f01602080910402602001604051908101604052809291908181526020018280546001816001161561010002031660029004801561112c5780601f106111015761010080835404028352916020019161112c565b820191906000526020600020905b81548152906001019060200180831161110f57829003601f168201915b505050505090506111a3565b611177826040518060400160405280600281526020017f69640000000000000000000000000000000000000000000000000000000000008152506115cb565b156111a25761119b60056000858152602001908152602001600020600001546116be565b90506111a3565b5b92915050565b505050565b6060600660003373ffffffffffffffffffffffffffffffffffffffff1673ffffffffffffffffffffffffffffffffffffffff16815260200190815260200160002080548060200260200160405190810160405280929190818152602001828054801561125f57602002820191906000526020600020906000905b82829054906101000a900460ff1660ff16815260200190600101906020826000010492830192600103820291508084116112285790505b5050505050905090565b606060008273ffffffffffffffffffffffffffffffffffffffff1660001b905060606040518060400160405280601081526020017f30313233343536373839616263646566000000000000000000000000000000008152509050606060336040519080825280601f01601f1916602001820160405280156112f95781602001600182028038833980820191505090505b5090507f300000000000000000000000000000000000000000000000000000000000000081600081518110151561132c57fe5b9060200101907effffffffffffffffffffffffffffffffffffffffffffffffffffffffffffff1916908160001a9053507f780000000000000000000000000000000000000000000000000000000000000081600181518110151561138c57fe5b9060200101907effffffffffffffffffffffffffffffffffffffffffffffffffffffffffffff1916908160001a90535060008090505b60148110156114f45782600485600c84016020811015156113df57fe5b1a60f81b7effffffffffffffffffffffffffffffffffffffffffffffffffffffffffffff1916901c60f81c60ff1681518110151561141957fe5b90602001015160f81c60f81b826002830260020181518110151561143957fe5b9060200101907effffffffffffffffffffffffffffffffffffffffffffffffffffffffffffff1916908160001a90535082600f60f81b85600c840160208110151561148057fe5b1a60f81b1660f81c60ff1681518110151561149757fe5b90602001015160f81c60f81b82600283026003018151811015156114b757fe5b9060200101907effffffffffffffffffffffffffffffffffffffffffffffffffffffffffffff1916908160001a90535080806001019150506113c2565b50809350505050919050565b606060206040519080825280601f01601f1916602001820160405280156115365781602001600182028038833980820191505090505b50905060008090505b60208110156115ab5780601f0360080260020a8381151561155c57fe5b0460f81b828281518110151561156e57fe5b9060200101907effffffffffffffffffffffffffffffffffffffffffffffffffffffffffffff1916908160001a905350808060010191505061153f565b50919050565b6000600760009054906101000a900460ff1660ff16905090565b6000816040516020018082805190602001908083835b60208310151561160657805182526020820191506020810190506020830392506115e1565b6001836020036101000a03801982511681845116808217855250505050505090500191505060405160208183030381529060405280519060200120836040516020018082805190602001908083835b60208310151561167a5780518252602082019150602081019050602083039250611655565b6001836020036101000a0380198251168184511680821785525050505050509050019150506040516020818303038152906040528051906020012014905092915050565b60606000821415611706576040518060400160405280600181526020017f300000000000000000000000000000000000000000000000000000000000000081525090506117f3565b600082905060005b600082141515611734578080600101915050600a8281151561172c57fe5b04915061170e565b6060816040519080825280601f01601f1916602001820160405280156117695781602001600182028038833980820191505090505b50905060006001830390505b6000861415156117eb57600a8681151561178b57fe5b0660300160f81b8282806001900393508151811015156117a757fe5b9060200101907effffffffffffffffffffffffffffffffffffffffffffffffffffffffffffff1916908160001a905350600a868115156117e357fe5b049550611775565b819450505050505b91905056fea165627a7a7230582041cf68e421c0249dc3d1512b87559fa4d615dda116398324e64e2e3ffa4e2e2a0029307833393064334637343143363944393438463662393634353761624266443536316631323631666236307830333045343241396131384130644537323037413137633146623638653834623930373438373863307835363138393732433739644437343935373130453031383333443544363135433338323564383431",
  "source": "pragma solidity >= 0.5.0 < 0.6.0;\nimport \"./oraclize.sol\";\n\ncontract AssociationStore  is usingOraclize {\n\n\n    mapping(uint => Association) private mapAssociation;\n    mapping(address => uint8[]) private mapAddressAssociation;\n\n    struct Association {\n        uint id;\n        string businessNetworkName;\n        string businessNetworkId;\n        string taxId;\n        string businessAddress;\n        string businessCode;\n        string adminName;\n        string status;\n        string details;\n        mapping(address => Member) members;\n    }\n\n    struct Member {\n        address addr;\n        string role;\n    }\n\n    uint8 private countTotalId = 0;\n\n    constructor(\n    ) public {\n\n        countTotalId = countTotalId + 1;\n\n        mapAssociation[countTotalId].id = countTotalId;\n        mapAssociation[countTotalId].businessNetworkName = \"Network Business A\";\n        mapAssociation[countTotalId].businessNetworkId = \"1234\";\n        mapAssociation[countTotalId].taxId = \"VAT no\";\n        mapAssociation[countTotalId].businessAddress = \"Street no area code\";\n        mapAssociation[countTotalId].businessCode = \"Sic code\";\n        mapAssociation[countTotalId].adminName = \"0x390d3F741C69D948F6b96457abBfD561f1261fb6\";\n        mapAssociation[countTotalId].status = \"Valid\";\n        mapAssociation[countTotalId].details = \"Example details\";\n\n\n        countTotalId = countTotalId + 1;\n\n        mapAssociation[countTotalId].id = countTotalId;\n        mapAssociation[countTotalId].businessNetworkName = \"Network Business B\";\n        mapAssociation[countTotalId].businessNetworkId = \"1235\";\n        mapAssociation[countTotalId].taxId = \"VAT no 2\";\n        mapAssociation[countTotalId].businessAddress = \"Street no area code 2\";\n        mapAssociation[countTotalId].businessCode = \"Sic code 2\";\n        mapAssociation[countTotalId].adminName = \"0x030E42A9a18A0dE7207A17c1Fb68e84b9074878c\";\n        mapAssociation[countTotalId].status = \"Valid\";\n        mapAssociation[countTotalId].details = \"Example details 2\";\n\n        \n        countTotalId = countTotalId + 1;\n\n        mapAssociation[countTotalId].id = countTotalId;\n        mapAssociation[countTotalId].businessNetworkName = \"Network Business C\";\n        mapAssociation[countTotalId].businessNetworkId = \"1236\";\n        mapAssociation[countTotalId].taxId = \"VAT no 3\";\n        mapAssociation[countTotalId].businessAddress = \"Street no area code 3\";\n        mapAssociation[countTotalId].businessCode = \"Sic code 3\";\n        mapAssociation[countTotalId].adminName = \"0x5618972C79dD7495710E01833D5D615C3825d841\";\n        mapAssociation[countTotalId].status = \"Valid\";\n        mapAssociation[countTotalId].details = \"Example details 3\";\n\n\n        countTotalId = countTotalId + 1;\n\n        mapAssociation[countTotalId].id = countTotalId;\n        mapAssociation[countTotalId].businessNetworkName = \"Network Business D\";\n        mapAssociation[countTotalId].businessNetworkId = \"1237\";\n        mapAssociation[countTotalId].taxId = \"VAT no 4\";\n        mapAssociation[countTotalId].businessAddress = \"Street no area code 4\";\n        mapAssociation[countTotalId].businessCode = \"Sic code 4\";\n        mapAssociation[countTotalId].adminName = \"0x390d3F741C69D948F6b96457abBfD561f1261fb6\";\n        mapAssociation[countTotalId].status = \"Valid\";\n        mapAssociation[countTotalId].details = \"Example details 4 - \";\n\n\n        countTotalId = countTotalId + 1;\n\n        mapAssociation[countTotalId].id = countTotalId;\n        mapAssociation[countTotalId].businessNetworkName = \"Network Business E\";\n        mapAssociation[countTotalId].businessNetworkId = \"1238\";\n        mapAssociation[countTotalId].taxId = \"VAT no 5\";\n        mapAssociation[countTotalId].businessAddress = \"Street no area code 5\";\n        mapAssociation[countTotalId].businessCode = \"Sic code 5\";\n        mapAssociation[countTotalId].adminName = \"0x030E42A9a18A0dE7207A17c1Fb68e84b9074878c\";\n        mapAssociation[countTotalId].status = \"Valid\";\n        mapAssociation[countTotalId].details = \"Example details 5\";\n\n        mapAddressAssociation[0x030E42A9a18A0dE7207A17c1Fb68e84b9074878c].push(1);\n        mapAddressAssociation[0x030E42A9a18A0dE7207A17c1Fb68e84b9074878c].push(2);\n        mapAddressAssociation[0x030E42A9a18A0dE7207A17c1Fb68e84b9074878c].push(5);\n        mapAssociation[1].members[0x030E42A9a18A0dE7207A17c1Fb68e84b9074878c].addr = 0x030E42A9a18A0dE7207A17c1Fb68e84b9074878c;\n        mapAssociation[1].members[0x030E42A9a18A0dE7207A17c1Fb68e84b9074878c].role = \"member\";\n        mapAssociation[2].members[0x030E42A9a18A0dE7207A17c1Fb68e84b9074878c].addr = 0x030E42A9a18A0dE7207A17c1Fb68e84b9074878c;\n        mapAssociation[2].members[0x030E42A9a18A0dE7207A17c1Fb68e84b9074878c].role = \"admin\";\n        mapAssociation[5].members[0x030E42A9a18A0dE7207A17c1Fb68e84b9074878c].addr = 0x030E42A9a18A0dE7207A17c1Fb68e84b9074878c;\n        mapAssociation[5].members[0x030E42A9a18A0dE7207A17c1Fb68e84b9074878c].role = \"admin\";\n\n        mapAddressAssociation[0x5618972C79dD7495710E01833D5D615C3825d841].push(3);\n        mapAddressAssociation[0x5618972C79dD7495710E01833D5D615C3825d841].push(5);\n        mapAssociation[3].members[0x5618972C79dD7495710E01833D5D615C3825d841].addr = 0x5618972C79dD7495710E01833D5D615C3825d841;\n        mapAssociation[3].members[0x5618972C79dD7495710E01833D5D615C3825d841].role = \"admin\";\n        mapAssociation[5].members[0x5618972C79dD7495710E01833D5D615C3825d841].addr = 0x5618972C79dD7495710E01833D5D615C3825d841;\n        mapAssociation[5].members[0x5618972C79dD7495710E01833D5D615C3825d841].role = \"member\";\n    }\n\n    function getPropertyById(\n        uint _countInput,\n        string memory _propertyInput\n    ) view\n    public returns(string memory) {\n        if(compareStrings(_propertyInput,\"businessNetworkName\")) {\n            return mapAssociation[_countInput].businessNetworkName;\n        }\n        else if(compareStrings(_propertyInput,\"businessNetworkId\")) {\n            return mapAssociation[_countInput].businessNetworkId;\n        }\n        else if(compareStrings(_propertyInput,\"taxId\")) {\n            return mapAssociation[_countInput].taxId;\n        }\n        else if(compareStrings(_propertyInput,\"businessAddress\")) {\n            return mapAssociation[_countInput].businessAddress;\n        }\n        else if(compareStrings(_propertyInput,\"businessCode\")) {\n            return mapAssociation[_countInput].businessCode;\n        }\n        else if(compareStrings(_propertyInput,\"adminName\")) {\n            return mapAssociation[_countInput].adminName;\n        }\n        else if(compareStrings(_propertyInput,\"status\")) {\n            return mapAssociation[_countInput].status;\n        }\n        else if(compareStrings(_propertyInput,\"details\")) {\n            return mapAssociation[_countInput].details;\n        }\n        else if(compareStrings(_propertyInput,\"role\")) {\n            return mapAssociation[_countInput].members[msg.sender].role;\n        }\n        else if(compareStrings(_propertyInput,\"id\")) {\n            return uint2str(mapAssociation[_countInput].id);\n        }\n    }\n    \n    function compareStrings(\n        string memory a, string memory b\n    ) public pure \n    returns (bool) {\n        return (\n            keccak256(abi.encodePacked((a))) == keccak256(abi.encodePacked((b)))\n        );\n    }\n\n    function getCountTotalId() \n    public view \n    returns (uint) {\n        return countTotalId;\n    }\n\n    function getMyIds() \n    public view\n    returns (uint8[] memory) {\n        return mapAddressAssociation[msg.sender];\n    }\n\n}",
  "sourcePath": "D:/project/BCCProjectDemo/contracts/AssociationStore.sol",
  "compiler": {
    "name": "solc",
    "version": "0.5.5+commit.47a71e8f.Emscripten.clang"
  },
  "schemaVersion": "3.0.22",
  "updatedAt": "2021-09-16T10:34:52.316Z",
  "networkType": "ethereum",
  "devdoc": {
    "methods": {}
  },
  "userdoc": {
    "methods": {}
  }
}